:100000000C942A000C9447000C9447000C94470071
:100010000C9447000C9447000C9447000C94470044
:100020000C9447000C9447000C9447000C94470034
:100030000C9447000C9447000C9447000C94470024
:100040000C9447000C9447000C9447000C94470014
:100050000C94470011241FBECFE5D4E0DEBFCDBF16
:1000600012E0A0E6B0E0EAEDFCE302C005900D92DC
:10007000A431B107D9F712E0A4E1B2E001C01D92AA
:10008000A631B107E1F70E94AF120C946B1E0C94DD
:100090000000EF92FF920F931F937B018C0120E0F1
:1000A00030E040E05FE40E94F50388238CF0C80153
:1000B000B70120E030E040E05FE40E94C1010E940F
:1000C00085049B01AC01205030404040504806C0A0
:1000D000C801B7010E9485049B01AC01B901CA01A6
:1000E0001F910F91FF90EF900895A0E0B0E0EBE733
:1000F000F0E00C94341EDC012B01FA019C9192304B
:1001000008F439C1EB018881823008F433C194309E
:1001100069F4843009F02FC111969C91119789815F
:10012000981709F428C1ADEEB0E025C1843009F478
:1001300021C18230A9F4923009F01DC19A01AD01AC
:1001400088E0EA010990AE01E90109929E0181501F
:10015000C1F7E201898111969C918923818308C1AD
:10016000923009F407C112962D903C901397EB0141
:100170008A819B811496AD90BD90CD90DC901797AD
:10018000EC80FD800E811F819101281B390BB90184
:1001900037FF04C066277727621B730B6032710537
:1001A0000CF061C0121613066CF537014801062EDB
:1001B00004C096948794779467940A94D2F721E0C8
:1001C00030E040E050E004C0220F331F441F551FB1
:1001D0006A95D2F721503040404050402E213F21B7
:1001E00040235123211531054105510521F021E01E
:1001F00030E040E050E079018A01E628F72808293C
:1002000019293CC0232BD1F1260E371E350146019A
:10021000062E04C096948794779467940A94D2F734
:1002200021E030E040E050E004C0220F331F441FC3
:10023000551F6A95D2F721503040404050402A2146
:100240003B214C215D21211531054105510521F04E
:1002500021E030E040E050E059016A01A628B728CB
:10026000C828D9280BC0821593052CF01C01AA249C
:10027000BB24650103C0EE24FF24870111969C91E5
:10028000D20111968C91981709F445C0992339F041
:10029000A80197012A193B094C095D0906C0A6016E
:1002A00095012E193F09400B510B57FD08C01182D3
:1002B0003382228224833583468357831DC081E0A5
:1002C00081833382228288279927DC01821B930B4A
:1002D000A40BB50B84839583A683B7830DC0220F2F
:1002E000331F441F551F24833583468357838281E0
:1002F000938101979383828324813581468157813D
:10030000DA01C9010197A109B1098F5F9F4FAF4F72
:10031000BF4328F30BC0918333822282EA0CFB1C7B
:100320000C1D1D1DE482F5820683178383E0808304
:10033000248135814681578157FF1AC0C901AA27F8
:1003400097FDA095BA2F81709070A070B0705695EF
:10035000479537952795822B932BA42BB52B848318
:100360009583A683B7838281938101969383828349
:10037000DF0101C0D201CD01CDB7DEB7E2E10C94BF
:10038000501EA0E2B0E0E7ECF1E00C94401E69835F
:100390007A838B839C832D833E834F835887E9E048
:1003A000EE2EF12CEC0EFD1ECE010196B7010E943F
:1003B00076068E010F5E1F4FCE010596B8010E9492
:1003C00076068A8991E089278A8BC701B801AE0138
:1003D000475E5F4F0E9475000E94A105A096E6E06F
:1003E0000C945C1EA0E2B0E0E8EFF1E00C94401E3B
:1003F00069837A838B839C832D833E834F835887C5
:10040000F9E0EF2EF12CEC0EFD1ECE010196B701A6
:100410000E9476068E010F5E1F4FCE010596B80131
:100420000E947606C701B801AE01475E5F4F0E9489
:1004300075000E94A105A096E6E00C945C1EA0E267
:10044000B0E0E5E2F2E00C94341E69837A838B839A
:100450009C832D833E834F835887CE010196BE0136
:10046000675F7F4F0E947606CE010596BE016F5EE4
:100470007F4F0E9476069985923088F08989823074
:10048000C8F0943019F4823051F404C0843029F457
:10049000923081F48DEE90E0C6C0923049F420E0B5
:1004A0009A858A89981321E02A87CE010996BBC0D4
:1004B000823049F420E09A858A89981321E02A8BBA
:1004C000CE014196B0C02D843E844F8458886D88FB
:1004D0007E888F88988CEE24FF248701AA24BB2471
:1004E000650140E050E060E070E0E0E0F0E0C10174
:1004F00081709070892BE9F0E60CF71C081D191D1E
:100500009A01AB012A0D3B1D4C1D5D1D80E090E062
:10051000A0E0B0E0E614F7040805190520F481E036
:1005200090E0A0E0B0E0BA01A901480F591F6A1F8E
:100530007B1FAA0CBB1CCC1CDD1C97FE08C081E0F5
:1005400090E0A0E0B0E0A82AB92ACA2ADB2A3196B6
:10055000E032F10549F0660C771C881C991C569412
:10056000479437942794C3CFFA85EA892B893C892D
:100570008B859C85280F391F2E5F3F4F17C0CA01FE
:1005800081709070892B61F016950795F794E79428
:1005900080E090E0A0E0B0E8E82AF92A0A2B1B2BC3
:1005A00076956795579547952F5F3F4F77FDE7CF36
:1005B0000CC0440F551F661F771F17FD4160EE0CDE
:1005C000FF1C001F111F21503040403090E05907A0
:1005D00090E0690790E4790760F32B8F3C8FDB0193
:1005E000CA018F779070A070B07080349105A1051A
:1005F000B10561F447FD0AC0E114F10401051105DC
:1006000029F0405C5F4F6F4F7F4F40781A8EFE1786
:1006100011F081E08A8F4D8F5E8F6F8F78A383E01A
:10062000898FCE0149960E94A105A096E2E10C9423
:10063000501EA8E1B0E0EFE1F3E00C943C1E6983AA
:100640007A838B839C832D833E834F835887B9E0C5
:10065000EB2EF12CEC0EFD1ECE010196B7010E948F
:1006600076068E010F5E1F4FCE010596B8010E94DF
:1006700076062985223008F47EC03989323010F49C
:10068000B8017CC08A859A8989278A87243011F02D
:10069000223031F4231709F06EC06DEE70E06EC0A9
:1006A000343039F41D861E861F86188A1C861B86E8
:1006B00004C0323021F484E08987B7015FC02B8504
:1006C0003C858B899C89281B390B3C872B87ED84C3
:1006D000FE840F851889AD88BE88CF88D88CEA142F
:1006E000FB040C051D0540F4EE0CFF1C001F111F40
:1006F000215030403C872B8720E030E040E050E044
:1007000080E090E0A0E0B0E460E070E0EA14FB0478
:100710000C051D0540F0282B392B4A2B5B2BEA18C2
:10072000FB080C091D09B695A79597958795EE0CC2
:10073000FF1C001F111F6F5F7F4F6F31710531F775
:10074000DA01C9018F779070A070B0708034910584
:10075000A105B10561F427FD0AC0E114F10401050A
:10076000110529F0205C3F4F4F4F5F4F20782D87B8
:100770003E874F87588BBE01675F7F4FCB010E943A
:10078000A1056896EAE00C94581EA8E1B0E0EBECF5
:10079000F3E00C94401E69837A838B839C832D83C2
:1007A0003E834F83588789E0E82EF12CEC0EFD1E26
:1007B000CE010196B7010E9476068E010F5E1F4F93
:1007C000CE010596B8010E9476068985823040F0F8
:1007D0008989823028F0C701B8010E94EE0601C065
:1007E0008FEF6896E6E00C945C1EA8E1B0E0EBEFBA
:1007F000F3E00C94401E69837A838B839C832D8362
:100800003E834F83588789E0E82EF12CEC0EFD1EC5
:10081000CE010196B7010E9476068E010F5E1F4F32
:10082000CE010596B8010E9476068985823040F097
:100830008989823028F0C701B8010E94EE0601C004
:100840008FEF6896E6E00C945C1EA8E1B0E0EBE266
:10085000F4E00C94401E69837A838B839C832D8300
:100860003E834F83588789E0E82EF12CEC0EFD1E65
:10087000CE010196B7010E9476068E010F5E1F4FD2
:10088000CE010596B8010E9476068985823040F037
:100890008989823028F0C701B8010E94EE0601C0A4
:1008A00081E06896E6E00C945C1EA8E1B0E0EBE520
:1008B000F4E00C94401E69837A838B839C832D83A0
:1008C0003E834F83588789E0E82EF12CEC0EFD1E05
:1008D000CE010196B7010E9476068E010F5E1F4F72
:1008E000CE010596B8010E9476068985823040F0D7
:1008F0008989823028F0C701B8010E94EE0601C044
:1009000081E06896E6E00C945C1EACE0B0E0EBE8B9
:10091000F4E00C94441E69837A838B839C83CE011C
:100920000196BE016B5F7F4F0E9476068D818230FB
:1009300061F1823050F1843021F48E81882351F1AD
:100940002EC02F81388537FD20C06E812F313105B3
:100950001CF06623F9F023C08EE190E0821B930B1C
:1009600029853A854B855C8504C056954795379512
:1009700027958A95D2F76623B1F05095409530952A
:1009800021953F4F4F4F5F4F0EC020E030E040E0D9
:1009900050E009C02FEF3FEF4FEF5FE704C020E0CA
:1009A00030E040E050E8B901CA012C96E2E00C9436
:1009B000601EA8E0B0E0EFEDF4E00C943C1E7B017B
:1009C0008C01611571058105910519F482E0898317
:1009D00060C083E089838EE1C82ED12CDC82CB827B
:1009E000ED82FE820F831887C801B7010E9452056D
:1009F000FC013197F7FF3BC0222733272E1B3F0B0B
:100A000057016801022E04C0D694C794B794A794E6
:100A10000A94D2F740E050E060E070E081E090E0BE
:100A2000A0E0B0E004C0880F991FAA1FBB1F2A9541
:100A3000D2F70197A109B1098E219F21A023B123EB
:100A40000097A105B10521F041E050E060E070E0C1
:100A50004A295B296C297D294D835E836F837887C2
:100A60008EE190E08E1B9F0B9C838B8312C030978E
:100A700081F00E2E04C0EE0CFF1C001F111F0A9403
:100A8000D2F7ED82FE820F831887CE1ADF0ADC824E
:100A9000CB821A82CE0101960E94A1052896EAE037
:100AA0000C94581EEF92FF920F931F937B018C01C1
:100AB00080E0E81680E0F80681E0080780E018078B
:100AC00088F48FEFE816F1040105110531F028F0E4
:100AD00088E090E0A0E0B0E017C080E090E0A0E007
:100AE000B0E012C080E0E81680E0F80680E0080779
:100AF00081E0180728F088E190E0A0E0B0E004C0B1
:100B000080E190E0A0E0B0E020E230E040E050E0A2
:100B1000281B390B4A0B5B0B04C016950795F794FD
:100B2000E7948A95D2F7F701EB50FF4F8081281B9D
:100B3000310941095109C9011F910F91FF90EF90AF
:100B40000895DF92EF92FF920F931F93FC01E480D0
:100B5000F58006811781D1808081823048F480E061
:100B600090E0A0E1B0E0E82AF92A0A2B1B2BA5C0EF
:100B7000843009F49FC0823021F4EE24FF248701E1
:100B800005C0E114F1040105110519F4E0E0F0E0FD
:100B900096C0628173819FEF623879070CF05BC069
:100BA00022E83FEF261B370B2A3131052CF020E0DD
:100BB00030E040E050E02AC0B801A701022E04C096
:100BC00076956795579547950A94D2F781E090E01E
:100BD000A0E0B0E004C0880F991FAA1FBB1F2A9590
:100BE000D2F70197A109B1098E219F21A023B1233A
:100BF0000097A105B10521F081E090E0A0E0B0E010
:100C00009A01AB01282B392B4A2B5B2BDA01C90146
:100C10008F779070A070B07080349105A105B105F8
:100C200039F427FF09C0205C3F4F4F4F5F4F04C08E
:100C3000215C3F4F4F4F5F4FE0E0F0E02030A0E0FD
:100C40003A07A0E04A07A0E45A0710F0E1E0F0E01C
:100C500079018A0127C06038710564F5FB01E1580C
:100C6000FF4FD801C7018F779070A070B0708034AB
:100C70009105A105B10539F4E7FE0DC080E490E0CF
:100C8000A0E0B0E004C08FE390E0A0E0B0E0E80EA8
:100C9000F91E0A1F1B1F17FF05C016950795F7942D
:100CA000E794319687E016950795F794E7948A952F
:100CB000D1F705C0EE24FF248701EFEFF0E06E2F9F
:100CC000679566276795902F9F77D794DD24D794F3
:100CD0008E2F8695492F462B582F5D29B701CA01C3
:100CE0001F910F91FF90EF90DF900895FC01DB01C1
:100CF000408151812281622F6F7770E0221F22276D
:100D0000221F9381892F880F822B282F30E0991F73
:100D10009927991F11969C93119721153105A9F5D3
:100D2000411551056105710511F482E037C082E873
:100D30009FEF13969C938E9312979A01AB0167E0F5
:100D4000220F331F441F551F6A95D1F783E08C9300
:100D50000DC0220F331F441F551F12968D919C9179
:100D60001397019713969C938E931297203080E0EF
:100D7000380780E0480780E4580758F314962D930D
:100D80003D934D935C93179708952F3F310579F468
:100D9000411551056105710519F484E08C9308959E
:100DA00064FF03C081E08C9312C01C9210C02F57C7
:100DB000304013963C932E93129783E08C9387E0F8
:100DC000440F551F661F771F8A95D1F770641496DC
:100DD0004D935D936D937C93179708951F93DC015A
:100DE000FB019C91923008F447C08081823008F466
:100DF00043C0943051F411961C91843099F581814F
:100E0000682F70E0611B71093FC0843021F092307F
:100E100031F48230B9F18181882389F12DC0119696
:100E20001C9111978230F1F081811817D9F4129634
:100E30002D913C911397828193818217930794F0AF
:100E400028173907BCF014968D919D910D90BC9197
:100E5000A02D2481358146815781281739074A07FB
:100E60005B0718F4112341F00AC082179307A40707
:100E7000B50740F4112319F061E070E005C06FEF91
:100E80007FEF02C060E070E0CB011F910895DF9317
:100E9000CF93CDB7DEB7E7E2F0E01082A7E2B0E093
:100EA000E7E2F0E080818C93A6E2B0E0E6E2F0E0D9
:100EB000808180628C93A6E2B0E0E6E2F0E080817F
:100EC00080688C93A6E2B0E0E6E2F0E08081866084
:100ED0008C93A6E2B0E0E6E2F0E0808180618C9342
:100EE000CF91DF910895DF93CF930F92CDB7DEB707
:100EF0008983A7E2B0E0E7E2F0E08081807E8C9316
:100F0000A7E2B0E0E7E2F0E090818981892B8C9341
:100F1000A6E2B0E0E6E2F0E0808180648C93E6E255
:100F2000F0E0808182958F70882F90E081709070C2
:100F30000097A9F3A6E2B0E0E6E2F0E080818061EC
:100F40008C93E4E2F0E0808191810F90CF91DF916A
:100F50000895DF93CF9300D000D000D0CDB7DEB797
:100F60009E838D838D819E81CC01A0E0B0E0BC0189
:100F7000CD010E94D904DC01CB01BC01CD0120E0F0
:100F800030E040E854E40E941903DC01CB01BC01CD
:100F9000CD0120E030E040EA50E40E941F02DC0175
:100FA000CB0189839A83AB83BC8389819A81AB818E
:100FB000BC81BC01CD0126960FB6F894DEBF0FBEF2
:100FC000CDBFCF91DF910895DF93CF930F92CDB72F
:100FD000DEB789838091140261E00E94BB10898191
:100FE0000E94CE0E809114028F5F80931402809134
:100FF0001402843011F4109214020F90CF91DF91FB
:101000000895DF93CF93CDB7DEB72F970FB6F8943F
:10101000DEBF0FBECDBF8F878091150261E00E94B9
:10102000BB108F850E94CE0E80E090E0A8E4B3E470
:101030008B879C87AD87BE876B857C858D859E85DC
:1010400020E030E04AE753E40E941F02DC01CB01BC
:101050008F839887A987BA876F81788589859A85D4
:1010600020E030E040E85FE30E94250488232CF470
:1010700081E090E09E838D833FC06F817885898574
:101080009A8520E03FEF4FE757E40E94C50318160A
:101090004CF56B857C858D859E8520E030E040E2B7
:1010A00051E40E941F02DC01CB01BC01CD010E9472
:1010B0004900DC01CB019E838D830FC089E190E064
:1010C0009C838B838B819C810197F1F79C838B831D
:1010D0008D819E8101979E838D838D819E81009756
:1010E00069F714C06F81788589859A850E944900C7
:1010F000DC01CB019E838D838D819E819A838983C0
:1011000089819A810197F1F79A83898380911502E9
:1011100061E00E94BB108AE20E94CE0E809115020F
:101120008F5F8093150280911502843011F4109224
:1011300015022F960FB6F894DEBF0FBECDBFCF912C
:10114000DF910895DF93CF9300D000D000D0CDB7CA
:10115000DEB79B838A837D836C83198219C0898162
:10116000282F30E08A819B81FC01E20FF31F408130
:101170008981282F30E08C819D81FC01E20FF31FD3
:101180008081481711F01E8208C089818F5F898392
:101190008981843020F381E08E838E8126960FB67C
:1011A000F894DEBF0FBECDBFCF91DF910895DF93DE
:1011B000CF9300D000D000D0CDB7DEB79B838A8319
:1011C0007D836C83198219C08981282F30E08A8140
:1011D0009B81FC01E20FF31F40818981282F30E0C1
:1011E0008C819D81FC01E20FF31F8081481711F073
:1011F0001E8208C089818F5F89838981843020F3B2
:1012000081E08E838E8126960FB6F894DEBF0FBEE6
:10121000CDBFCF91DF910895DF93CF9300D000D061
:10122000CDB7DEB789836A838981282F30E03C837C
:101230002B838B819C8181309105D1F02B813C8166
:10124000223031052CF48B819C81009761F01EC007
:101250002B813C812230310581F08B819C81833050
:10126000910581F013C0EAE3F0E08A8180830EC02B
:10127000E7E3F0E08A81808309C0E4E3F0E08A815B
:10128000808304C0E1E3F0E08A8180830F900F90B7
:101290000F900F90CF91DF910895DF93CF93CDB74B
:1012A000DEB727970FB6F894DEBF0FBECDBF898398
:1012B0006A834B838B81813009F06FC08981282F2D
:1012C00030E03F832E838E819F818130910549F1EB
:1012D0002E813F81223031052CF48E819F81009731
:1012E00061F0D2C02E813F812230310571F18E81B3
:1012F0009F8183309105E9F1C7C0AAE3B0E0EAE33A
:10130000F0E08081482F8A81282F30E081E090E052
:10131000022E02C0880F991F0A94E2F7842B8C9347
:10132000B3C0A7E3B0E0E7E3F0E08081482F8A8113
:10133000282F30E081E090E0022E02C0880F991F34
:101340000A94E2F7842B8C939FC0A4E3B0E0E4E31B
:10135000F0E08081482F8A81282F30E081E090E002
:10136000022E02C0880F991F0A94E2F7842B8C93F7
:101370008BC0A1E3B0E0E1E3F0E08081482F8A81F7
:10138000282F30E081E090E0022E02C0880F991FE4
:101390000A94E2F7842B8C9377C08B81882309F021
:1013A00073C08981282F30E03D832C838C819D81FF
:1013B0008130910559F12C813D81223031052CF489
:1013C0008C819D81009769F05FC02C813D81223026
:1013D000310589F18C819D818330910509F440C0EC
:1013E00053C0AAE3B0E0EAE3F0E08081482F8A81AD
:1013F000282F30E081E090E0022E02C0880F991F74
:101400000A94E2F7809584238C933EC0A7E3B0E072
:10141000E7E3F0E08081482F8A81282F30E081E0E7
:1014200090E0022E02C0880F991F0A94E2F780957F
:1014300084238C9329C0A4E3B0E0E4E3F0E080814E
:10144000482F8A81282F30E081E090E0022E02C0F0
:10145000880F991F0A94E2F7809584238C9314C017
:10146000A1E3B0E0E1E3F0E08081482F8A81282FFA
:1014700030E081E090E0022E02C0880F991F0A94AC
:10148000E2F7809584238C9327960FB6F894DEBFFD
:101490000FBECDBFCF91DF910895DF93CF9300D0E2
:1014A00000D0CDB7DEB789836A838981282F30E0E9
:1014B0003C832B838B819C8181309105D1F02B81E2
:1014C0003C81223031052CF48B819C81009761F0A6
:1014D0001EC02B813C812230310581F08B819C81A3
:1014E0008330910581F013C0EBE3F0E08A818083C3
:1014F0000EC0E8E3F0E08A81808309C0E5E3F0E014
:101500008A81808304C0E2E3F0E08A8180830F90C7
:101510000F900F900F90CF91DF910895DF93CF93AD
:10152000CDB7DEB727970FB6F894DEBF0FBECDBF9D
:1015300089836A834B838B81813009F06FC08981F5
:10154000282F30E03F832E838E819F81813091054B
:1015500049F12E813F81223031052CF48E819F810B
:10156000009761F0D2C02E813F812230310571F1A8
:101570008E819F8183309105E9F1C7C0ABE3B0E074
:10158000EBE3F0E08081482F8A81282F30E081E072
:1015900090E0022E02C0880F991F0A94E2F7842B74
:1015A0008C93B3C0A8E3B0E0E8E3F0E08081482F7B
:1015B0008A81282F30E081E090E0022E02C0880F5F
:1015C000991F0A94E2F7842B8C939FC0A5E3B0E0A7
:1015D000E5E3F0E08081482F8A81282F30E081E028
:1015E00090E0022E02C0880F991F0A94E2F7842B24
:1015F0008C938BC0A2E3B0E0E2E3F0E08081482F5F
:101600008A81282F30E081E090E0022E02C0880F0E
:10161000991F0A94E2F7842B8C9377C08B818823DF
:1016200009F073C08981282F30E03D832C838C81A1
:101630009D818130910559F12C813D812230310508
:101640002CF48C819D81009769F05FC02C813D81D5
:101650002230310589F18C819D818330910509F417
:1016600040C053C0ABE3B0E0EBE3F0E08081482F33
:101670008A81282F30E081E090E0022E02C0880F9E
:10168000991F0A94E2F7809584238C933EC0A8E3C7
:10169000B0E0E8E3F0E08081482F8A81282F30E035
:1016A00081E090E0022E02C0880F991F0A94E2F7B1
:1016B000809584238C9329C0A5E3B0E0E5E3F0E0B6
:1016C0008081482F8A81282F30E081E090E0022E2F
:1016D00002C0880F991F0A94E2F7809584238C93A7
:1016E00014C0A2E3B0E0E2E3F0E08081482F8A81F9
:1016F000282F30E081E090E0022E02C0880F991F71
:101700000A94E2F7809584238C9327960FB6F89479
:10171000DEBF0FBECDBFCF91DF910895DF93CF9392
:1017200000D000D00F92CDB7DEB78A836B838A8159
:10173000282F30E03D832C834C815D814130510561
:1017400041F18C819D818230910534F42C813D8161
:101750002115310561F052C04C815D814230510547
:1017600051F18C819D8183309105B9F147C0E9E346
:10177000F0E08081282F30E08B81882F90E0A90154
:1017800002C0559547958A95E2F7CA018170898311
:1017900035C0E6E3F0E08081282F30E08B81882F90
:1017A00090E0A90102C0559547958A95E2F7CA01D4
:1017B0008170898323C0E3E3F0E08081282F30E04B
:1017C0008B81882F90E0A90102C0559547958A9595
:1017D000E2F7CA018170898311C0E0E3F0E0808103
:1017E000282F30E08B81882F90E0A90102C0559509
:1017F00047958A95E2F7CA018170898389810F90A4
:101800000F900F900F900F90CF91DF910895DF937D
:10181000CF9300D000D0CDB7DEB789836A838981AA
:10182000282F30E03C832B838B819C818130910574
:1018300049F12B813C81223031052CF48B819C8134
:10184000009761F05AC02B813C812230310571F143
:101850008B819C8183309105E9F14FC0ABE3B0E00F
:10186000EBE3F0E08081482F8A81282F30E081E08F
:1018700090E0022E02C0880F991F0A94E2F7842B91
:101880008C933BC0A8E3B0E0E8E3F0E08081482F10
:101890008A81282F30E081E090E0022E02C0880F7C
:1018A000991F0A94E2F7842B8C9327C0A5E3B0E03C
:1018B000E5E3F0E08081482F8A81282F30E081E045
:1018C00090E0022E02C0880F991F0A94E2F7842B41
:1018D0008C9313C0A2E3B0E0E2E3F0E08081482FF4
:1018E0008A81282F30E081E090E0022E02C0880F2C
:1018F000991F0A94E2F7842B8C930F900F900F900E
:101900000F90CF91DF910895DF93CF93CDB7DEB7DE
:10191000A5E5B0E0E5E5F0E080818E7F8C93A5E55C
:10192000B0E0E5E5F0E0808182608C93ABE5B0E06B
:10193000EBE5F0E0808180648C93CF91DF91089596
:10194000DF93CF93CDB7DEB7A5E5B0E0E5E5F0E0F6
:1019500080818B7F8C93A5E5B0E0E5E5F0E08081A8
:1019600088608C93ABE5B0E0EBE5F0E080818068C7
:101970008C93CF91DF910895DF93CF93CDB7DEB7EE
:10198000A4E5B0E0E4E5F0E080818F7B8C93ABE5EB
:10199000B0E0EBE5F0E0808180628C93CF91DF9145
:1019A0000895DF93CF93CDB7DEB7AFE5B0E0EFE5B5
:1019B000F0E0808180688C93CF91DF910895DF9370
:1019C000CF93CDB7DEB7AFE5B0E0EFE5F0E08081D3
:1019D0008F778C93CF91DF910895DF93CF9300D0D1
:1019E000CDB7DEB71A821BC08A81882F90E0FC0138
:1019F000EB50FE4F908180E0692F41E00E944D093D
:101A00008A81882F90E0FC01EB50FE4F908180E0AE
:101A1000692F41E00E948E0A8A818F5F8A838A81C2
:101A2000843010F319821BC08981882F90E0FC015B
:101A3000E750FE4F908180E0692F40E00E944D0901
:101A40008981882F90E0FC01E750FE4F908180E073
:101A5000692F41E00E948E0A89818F5F8983898185
:101A6000833010F30F900F90CF91DF910895DF93A3
:101A7000CF93CDB7DEB761970FB6F894DEBF0FBE38
:101A8000CDBF188A1F8697C08F85882F90E0FC01F4
:101A9000EB50FE4F80810E94210E8F85882F90E0B1
:101AA000FC01EB50FE4F80810E94EF0D898B8989EC
:101AB0008F3F61F08F85282F30E0C901880F991F73
:101AC000820F931F982F8989890F888B80E090E07F
:101AD000A0E0B0E48B879C87AD87BE876B857C8553
:101AE0008D859E8520E030E04AE753E40E941F0286
:101AF000DC01CB018F839887A987BA876F817885AE
:101B000089859A8520E030E040E85FE30E94250463
:101B100088232CF481E090E09E838D833FC06F8109
:101B2000788589859A8520E03FEF4FE757E40E944A
:101B3000C50318164CF56B857C858D859E8520E048
:101B400030E040E251E40E941F02DC01CB01BC0105
:101B5000CD010E944900DC01CB019E838D830FC023
:101B600089E190E09C838B838B819C810197F1F7C5
:101B70009C838B838D819E8101979E838D838D8134
:101B80009E81009769F714C06F81788589859A8551
:101B90000E944900DC01CB019E838D838D819E8153
:101BA0009A83898389819A810197F1F79A8389833E
:101BB0008F858F5F8F878F85843008F465CF888904
:101BC000882F90E0FC01EC5FFD4F808161960FB69D
:101BD000F894DEBF0FBECDBFCF91DF910895DF93A4
:101BE000CF9300D00F92CDB7DEB78A83198218C089
:101BF0008981882F90E0FC01E750FE4F908180E0C2
:101C0000692F0E948E0B882341F480E06A8141E0B5
:101C10000E948E0A89818B830DC089818F5F8983A1
:101C20008981843028F380E06A8141E00E948E0A35
:101C30008FEF8B838B810F900F900F90CF91DF915F
:101C40000895DF93CF930F92CDB7DEB7898380E0FD
:101C5000698140E00E948E0A0F90CF91DF91089534
:101C6000DF93CF93CDB7DEB72F970FB6F894DEBFD3
:101C70000FBECDBF8F8783E062E040E00E948E0AF6
:101C800083E063E040E00E948E0A82E06F850E945C
:101C90004D0A83E064E041E00E948E0A80E090E01B
:101CA000A0E0B0E48B879C87AD87BE876B857C8581
:101CB0008D859E8520E030E04AE753E40E941F02B4
:101CC000DC01CB018F839887A987BA876F817885DC
:101CD00089859A8520E030E040E85FE30E94250492
:101CE00088232CF481E090E09E838D833FC06F8138
:101CF000788589859A8520E03FEF4FE757E40E9479
:101D0000C50318164CF56B857C858D859E8520E076
:101D100030E040E251E40E941F02DC01CB01BC0133
:101D2000CD010E944900DC01CB019E838D830FC051
:101D300089E190E09C838B838B819C810197F1F7F3
:101D40009C838B838D819E8101979E838D838D8162
:101D50009E81009769F714C06F81788589859A857F
:101D60000E944900DC01CB019E838D838D819E8181
:101D70009A83898389819A810197F1F79A8389836C
:101D800083E064E040E00E948E0A2F960FB6F8943C
:101D9000DEBF0FBECDBFCF91DF910895DF93CF930C
:101DA000CDB7DEB72F970FB6F894DEBF0FBECDBF0D
:101DB0008F8783E062E041E00E948E0A83E063E067
:101DC00040E00E948E0A82E06F850E944D0A83E007
:101DD00064E041E00E948E0A80E090E0A0E0B0E480
:101DE0008B879C87AD87BE876B857C858D859E851F
:101DF00020E030E04AE753E40E941F02DC01CB01FF
:101E00008F839887A987BA876F81788589859A8516
:101E100020E030E040E85FE30E94250488232CF4B2
:101E200081E090E09E838D833FC06F8178858985B6
:101E30009A8520E03FEF4FE757E40E94C50318164C
:101E40004CF56B857C858D859E8520E030E040E2F9
:101E500051E40E941F02DC01CB01BC01CD010E94B4
:101E60004900DC01CB019E838D830FC089E190E0A6
:101E70009C838B838B819C810197F1F79C838B835F
:101E80008D819E8101979E838D838D819E81009798
:101E900069F714C06F81788589859A850E94490009
:101EA000DC01CB019E838D838D819E819A83898302
:101EB00089819A810197F1F79A83898383E064E0AD
:101EC00040E00E948E0A2F960FB6F894DEBF0FBE38
:101ED000CDBFCF91DF910895DF93CF93CDB7DEB71C
:101EE0002E970FB6F894DEBF0FBECDBF80E090E016
:101EF000ACE0B2E48B879C87AD87BE876B857C8521
:101F00008D859E8520E030E04AE753E40E941F0261
:101F1000DC01CB018F839887A987BA876F81788589
:101F200089859A8520E030E040E85FE30E9425043F
:101F300088232CF481E090E09E838D833FC06F81E5
:101F4000788589859A8520E03FEF4FE757E40E9426
:101F5000C50318164CF56B857C858D859E8520E024
:101F600030E040E251E40E941F02DC01CB01BC01E1
:101F7000CD010E944900DC01CB019E838D830FC0FF
:101F800089E190E09C838B838B819C810197F1F7A1
:101F90009C838B838D819E8101979E838D838D8110
:101FA0009E81009769F714C06F81788589859A852D
:101FB0000E944900DC01CB019E838D838D819E812F
:101FC0009A83898389819A810197F1F79A8389831A
:101FD0008CE30E94300E8CE00E94300E81E00E9463
:101FE000300E2E960FB6F894DEBF0FBECDBFCF9148
:101FF000DF910895DF93CF93CDB7DEB782E06FEF27
:102000000E940C0983E062E041E00E944D0983E0F8
:1020100063E041E00E944D0983E064E041E00E94FA
:102020004D09CF91DF910895DF93CF9300D00F92A8
:10203000CDB7DEB79B838A8319820EC08981282F92
:1020400030E08A819B81FC01E20FF31F80810E94B6
:10205000CE0E89818F5F89838981282F30E08A8124
:102060009B81FC01E20FF31F8081882339F70F90D9
:102070000F900F90CF91DF910895DF93CF9300D011
:102080000F92CDB7DEB789838981282F30E03B835B
:102090002A838A819B818430910509F44FC02A816B
:1020A0003B8125303105D4F48A819B8181309105B3
:1020B000C9F12A813B81223031052CF48A819B8130
:1020C000009761F152C02A813B812230310571F1C4
:1020D0008A819B818330910569F147C02A813B81C8
:1020E00027303105B9F18A819B81883091055CF4F4
:1020F0002A813B812530310529F18A819B818630F7
:10210000910521F132C02A813B812830310531F11E
:102110008A819B818930910529F127C080E30E9443
:10212000CE0E23C081E30E94CE0E1FC082E30E9428
:10213000CE0E1BC083E30E94CE0E17C084E30E9424
:10214000CE0E13C085E30E94CE0E0FC086E30E9420
:10215000CE0E0BC087E30E94CE0E07C088E30E941C
:10216000CE0E03C089E30E94CE0E0F900F900F9009
:10217000CF91DF910895DF93CF9300D00F92CDB729
:10218000DEB78A836B838B81882319F48A818983E4
:1021900006C08B81813019F48A81805C89838981B2
:1021A0008058898389810E94300E0F900F900F9084
:1021B000CF91DF910895DF93CF93CDB7DEB7279707
:1021C0000FB6F894DEBF0FBECDBF9C838B836D83AB
:1021D0004E832F838F81882F90E0880F991F880F5F
:1021E000991F880F991F8A838A81805C0E94300E14
:1021F00019820EC08981282F30E08B819C81FC01DF
:10220000E20FF31F80810E94CE0E89818F5F898348
:102210008981883078F38D816E810E94BB108F8117
:102220000E94CE0E27960FB6F894DEBF0FBECDBF2C
:10223000CF91DF910895DF93CF9300D000D0CDB739
:10224000DEB78C838C810E9473079B838A8381E035
:10225000898316C08A819B8180709270009721F0DB
:1022600081E00E943D1003C080E00E943D108A8101
:102270009B81880F991F9B838A8389818F5F8983C4
:1022800089818B3038F30F900F900F900F90CF9182
:10229000DF910895DF93CF93CDB7DEB72F970FB6B9
:1022A000F894DEBF0FBECDBF6C877D878E879F877A
:1022B0006C857D858E859F850E944900DC01CB0160
:1022C0009E838D836C857D858E859F8520E030E0A3
:1022D00040E251E40E941F02DC01CB01BC01CD01B0
:1022E0000E944900DC01CB019C838B838FEF8A83A2
:1022F0008D819E81009709F580E00E943D1035C0D8
:102300008A818F5F8A838A81E82FF0E08D819E81A8
:102310002AE030E0B9010E94201E282FCE01079646
:10232000E80FF91F20838D819E812AE030E0B901FA
:102330000E94201ECB019E838D838D819E810097FC
:10234000F9F68A8189830EC08981282F30E0CE0179
:102350000796FC01E20FF31F80810E943D108981E6
:102360008150898389818F3F79F78EE20E94CE0E5A
:102370008B819C812AE030E0B9010E94201E9C8361
:102380008B838B810E943D102F960FB6F894DEBF91
:102390000FBECDBFCF91DF910895DF93CF93CDB71F
:1023A000DEB728970FB6F894DEBF0FBECDBF6D83A2
:1023B0007E838F8398876D817E818F81988520E0D1
:1023C00030E048EC52E40E941F02DC01CB0189831B
:1023D0009A83AB83BC8389819A81AB81BC81BC0128
:1023E000CD010E944A118FED0E94CE0E83E40E941F
:1023F000CE0E89819A81AB81BC81BC01CD0128962A
:102400000FB6F894DEBF0FBECDBFCF91DF91089518
:10241000DF93CF93CDB7DEB7AFE4B0E0EFE4F0E009
:1024200080818F7B8C93AFE4B0E0EFE4F0E08081BB
:1024300080688C93AFE4B0E0EFE4F0E080818E7FC1
:102440008C93AFE4B0E0EFE4F0E0808182608C93A5
:10245000AEE4B0E0EEE4F0E0808188608C93AEE41E
:10246000B0E0EEE4F0E0808180618C93AEE4B0E017
:10247000EEE4F0E08081887F8C93AEE4B0E0EEE49F
:10248000F0E0808182608C93E6E4F0E080E29EE4FC
:1024900091838083CF91DF910895DF93CF9300D014
:1024A000CDB7DEB79A838983EAE4F0E089819A8127
:1024B000918380830F900F90CF91DF910895DF93E8
:1024C000CF93CDB7DEB7AAE2B0E0EAE2F0E08081D8
:1024D0008B7F8C93E0E4F0E086E88083E9E2F0E033
:1024E00083E38083AAE2B0E0EAE2F0E080818860E2
:1024F0008C93AAE2B0E0EAE2F0E0808180618C9304
:10250000CF91DF910895DF93CF930F92CDB7DEB7D0
:102510008983EBE2F0E08081829586958770882F31
:1025200090E0817090700097A1F3ECE2F0E0898177
:1025300080830F90CF91DF910895DF93CF93CDB734
:10254000DEB7EBE2F0E08081881F8827881F8130AA
:10255000C1F7ECE2F0E08081CF91DF9108950F9315
:102560001F93DF93CF93CDB7DEB7CF5DD0400FB6CB
:10257000F894DEBF0FBECDBF0E9447070E94FA0F3E
:102580000E946C0F0E945F1283E060E040E00E94B6
:102590004D0983E061E041E00E944D0983E065E080
:1025A00041E00E944D0983E060E040E00E944D0957
:1025B00083E061E040E00E944D0980E063E041E09B
:1025C0000E944D0981E06FEF0E940C09CE018A54F0
:1025D0009F4FCA52DF4F99838883C65DD04083EEF8
:1025E00090E0C852DF4F99838883C85DD04095E062
:1025F000C652DF4F9883CA5DD040C852DF4FE88192
:10260000F981C85DD0400080C852DF4F8881998130
:10261000C85DD0400196C852DF4F99838883C85D5A
:10262000D040CA52DF4FE881F981C65DD0400082B8
:10263000CA52DF4F88819981C65DD0400196CA5247
:10264000DF4F99838883C65DD040C652DF4F9881A3
:10265000CA5DD0409150C652DF4F9883CA5DD040CA
:10266000C652DF4FE881CA5DD040EE2331F6CE017D
:1026700085549F4FC552DF4F99838883CB5DD040EF
:1026800088EE90E0C352DF4F99838883CD5DD040C0
:1026900095E0C152DF4F9883CF5DD040C352DF4FEA
:1026A000E881F981CD5DD0400080C352DF4F888141
:1026B0009981CD5DD0400196C352DF4F99838883C5
:1026C000CD5DD040C552DF4FE881F981CB5DD04070
:1026D0000082C552DF4F88819981CB5DD040019641
:1026E000C552DF4F99838883CB5DD040C152DF4F05
:1026F0009881CF5DD0409150C152DF4F9883CF5D1C
:10270000D040C152DF4FE881CF5DD040EE2331F69B
:10271000FE01EC54FF4F81E08083FE01ED54FF4F3A
:102720001082FE01EE54FF4F81E080830E949D12D3
:10273000FE01EB54FF4F8083FE01EB54FF4F80817D
:102740008F3279F781E00E94300EFE01E956FF4F8B
:1027500080E090E0A0EAB1E480839183A283B38318
:102760008E010D561F4FFE01E956FF4F60817181AA
:102770008281938120E030E04AE753E40E941F0207
:10278000DC01CB01F80180839183A283B383FE0136
:10279000ED56FF4F608171818281938120E030E0AE
:1027A00040E85FE30E942504882344F4FE01EF56CD
:1027B000FF4F81E090E09183808364C0FE01ED567D
:1027C000FF4F608171818281938120E03FEF4FE76D
:1027D00057E40E94C50318160CF043C0FE01E956E9
:1027E000FF4F608171818281938120E030E040E27F
:1027F00051E40E941F02DC01CB018E010F561F4FD6
:10280000BC01CD010E944900DC01CB01F80191839C
:1028100080831FC0FE01E157FF4F89E190E0918363
:102820008083FE01E157FF4F808191810197F1F78D
:10283000FE01E157FF4F91838083DE01AF56BF4F0A
:10284000FE01EF56FF4F80819181019711969C9375
:102850008E93FE01EF56FF4F808191810097D1F654
:1028600027C08E010F561F4FFE01ED56FF4F6081AE
:102870007181828193810E944900DC01CB01F801C2
:1028800091838083DE01A357BF4FFE01EF56FF4FB8
:10289000808191818D939C93FE01E357FF4F80814E
:1028A00091810197F1F7FE01E357FF4F91838083F8
:1028B00080E690E00E94141083E061E00E94BB106B
:1028C0008FE690E00E941410FE01E757FF4F80E072
:1028D00090E4ACE9B5E480839183A283B3838E0155
:1028E0000B571F4FFE01E757FF4F608171818281B7
:1028F000938120E030E04AE753E40E941F02DC01AC
:10290000CB01F80180839183A283B383FE01EB574F
:10291000FF4F608171818281938120E030E040E847
:102920005FE30E942504882344F4FE01ED57FF4F26
:1029300081E090E09183808364C0FE01EB57FF4FFC
:10294000608171818281938120E03FEF4FE757E4FE
:102950000E94C50318160CF043C0FE01E757FF4F55
:10296000608171818281938120E030E040E251E416
:102970000E941F02DC01CB018E010D571F4FBC01CD
:10298000CD010E944900DC01CB01F80191838083D5
:102990001FC0FE01EF57FF4F89E190E091838083D4
:1029A000FE01EF57FF4F808191810197F1F7FE0102
:1029B000EF57FF4F91838083DE01AD57BF4FFE017C
:1029C000ED57FF4F80819181019711969C938E93D3
:1029D000FE01ED57FF4F808191810097D1F627C00E
:1029E0008E010D571F4FFE01EB57FF4F6081718124
:1029F000828193810E944900DC01CB01F80191831F
:102A00008083DE01A158BF4FFE01ED57FF4F80814B
:102A100091818D939C93FE01E158FF4F80819181BC
:102A20000197F1F7FE01E158FF4F9183808381E028
:102A30000E94300EFE01E558FF4F80E090E0A8E4D0
:102A4000B3E480839183A283B3838E0109581F4F1F
:102A5000FE01E558FF4F608171818281938120E002
:102A600030E04AE753E40E941F02DC01CB01F80189
:102A700080839183A283B383FE01E958FF4F608175
:102A800071818281938120E030E040E85FE30E9421
:102A90002504882344F4FE01EB58FF4F81E090E0C9
:102AA0009183808364C0FE01E958FF4F608171818A
:102AB0008281938120E03FEF4FE757E40E94C503F6
:102AC00018160CF043C0FE01E558FF4F608171817C
:102AD0008281938120E030E040E251E40E941F02B5
:102AE000DC01CB018E010B581F4FBC01CD010E94B0
:102AF0004900DC01CB01F801918380831FC0FE01F6
:102B0000ED58FF4F89E190E091838083FE01ED58FD
:102B1000FF4F808191810197F1F7FE01ED58FF4F42
:102B200091838083DE01AB58BF4FFE01EB58FF4F0E
:102B300080819181019711969C938E93FE01EB58B1
:102B4000FF4F808191810097D1F627C08E010B58ED
:102B50001F4FFE01E958FF4F60817181828193818F
:102B60000E944900DC01CB01F80191838083DE01E2
:102B7000AF58BF4FFE01EB58FF4F808191818D937D
:102B80009C93FE01EF58FF4F808191810197F1F7EF
:102B9000FE01EF58FF4F9183808381E00E94300E49
:102BA0008AE790E00E941410FE01ED54FF4F8081EF
:102BB000882319F48DE20E948312FE01EF54FF4F27
:102BC000108226C00E949D12FE01E055FF4F8083B7
:102BD000FE01E055FF4F80810E94E407FE01EF54A3
:102BE000FF4F8081282F30E0CE0180549F4FDC01C1
:102BF000A20FB31FFE01E055FF4F80818C93DE01D1
:102C0000AF54BF4FFE01EF54FF4F80818F5F8C9315
:102C1000FE01EF54FF4F80818430A0F2FE01E359A2
:102C2000FF4F80E090E0AAE7B4E480839183A28321
:102C3000B3838E0107591F4FFE01E359FF4F608197
:102C400071818281938120E030E04AE753E40E9461
:102C50001F02DC01CB01F80180839183A283B3833F
:102C6000FE01E759FF4F608171818281938120E0ED
:102C700030E040E85FE30E942504882344F4FE012D
:102C8000E959FF4F81E090E09183808364C0FE01A9
:102C9000E759FF4F608171818281938120E03FEF8E
:102CA0004FE757E40E94C50318160CF043C0FE011D
:102CB000E359FF4F608171818281938120E030E090
:102CC00040E251E40E941F02DC01CB018E01095950
:102CD0001F4FBC01CD010E944900DC01CB01F8016E
:102CE000918380831FC0FE01EB59FF4F89E190E083
:102CF00091838083FE01EB59FF4F80819181019781
:102D0000F1F7FE01EB59FF4F91838083DE01A95952
:102D1000BF4FFE01E959FF4F8081918101971196C4
:102D20009C938E93FE01E959FF4F8081918100971A
:102D3000D1F627C08E0109591F4FFE01E759FF4FF9
:102D400060817181828193810E944900DC01CB0105
:102D5000F80191838083DE01AD59BF4FFE01E9592F
:102D6000FF4F808191818D939C93FE01ED59FF4F20
:102D7000808191810197F1F7FE01ED59FF4F918319
:102D8000808381E00E94300E86E890E00E9414105B
:102D9000FE01E155FF4F108226C00E949D12FE01E8
:102DA000E255FF4F8083FE01E255FF4F80810E9474
:102DB0000108FE01E155FF4F8081282F30E0CE0150
:102DC0008B539F4FDC01A20FB31FFE01E255FF4F53
:102DD00080818C93DE01A155BF4FFE01E155FF4F6D
:102DE00080818F5F8C93FE01E155FF4F808184309D
:102DF000A0F2FE01E15AFF4F80E090E0AAE7B4E4C0
:102E000080839183A283B3838E01055A1F4FFE01F5
:102E1000E15AFF4F608171818281938120E030E02F
:102E20004AE753E40E941F02DC01CB01F8018083D2
:102E30009183A283B383FE01E55AFF4F60817181C4
:102E40008281938120E030E040E85FE30E94250426
:102E5000882344F4FE01E75AFF4F81E090E091831C
:102E6000808364C0FE01E55AFF4F608171818281D9
:102E7000938120E03FEF4FE757E40E94C503181607
:102E80000CF043C0FE01E15AFF4F608171818281E5
:102E9000938120E030E040E251E40E941F02DC0117
:102EA000CB018E01075A1F4FBC01CD010E94490082
:102EB000DC01CB01F801918380831FC0FE01E95A38
:102EC000FF4F89E190E091838083FE01E95AFF4F33
:102ED000808191810197F1F7FE01E95AFF4F9183BB
:102EE0008083DE01A75ABF4FFE01E75AFF4F808162
:102EF0009181019711969C938E93FE01E75AFF4FA3
:102F0000808191810097D1F627C08E01075A1F4F0B
:102F1000FE01E55AFF4F60817181828193810E9499
:102F20004900DC01CB01F80191838083DE01AB5ABB
:102F3000BF4FFE01E75AFF4F808191818D939C9393
:102F4000FE01EB5AFF4F808191810197F1F7FE015D
:102F5000EB5AFF4F91838083CE018B539F4F9E018D
:102F600025543F4FB9010E94A208882361F0CE0189
:102F700080549F4F9E012A543F4FB9010E94A208DE
:102F8000882309F0FFC1FE01ED54FF4F808182309C
:102F900009F051C184E50E94831281E00E94300E45
:102FA00086E990E00E941410FE01EF5AFF4F80E086
:102FB00090E0AAE7B3E480839183A283B3838E0178
:102FC000035B1F4FFE01EF5AFF4F608171818281C9
:102FD000938120E030E04AE753E40E941F02DC01C5
:102FE000CB01F80180839183A283B383FE01E35B6D
:102FF000FF4F608171818281938120E030E040E861
:103000005FE30E942504882344F4FE01E55BFF4F43
:1030100081E090E09183808364C0FE01E35BFF4F19
:10302000608171818281938120E03FEF4FE757E417
:103030000E94C50318160CF043C0FE01EF5AFF4F63
:10304000608171818281938120E030E040E251E42F
:103050000E941F02DC01CB018E01055B1F4FBC01EA
:10306000CD010E944900DC01CB01F80191838083EE
:103070001FC0FE01E75BFF4F89E190E091838083F1
:10308000FE01E75BFF4F808191810197F1F7FE011F
:10309000E75BFF4F91838083DE01A55BBF4FFE019D
:1030A000E55BFF4F80819181019711969C938E93F0
:1030B000FE01E55BFF4F808191810097D1F627C02B
:1030C0008E01055B1F4FFE01E35BFF4F6081718145
:1030D000828193810E944900DC01CB01F801918338
:1030E0008083DE01A95BBF4FFE01E55BFF4F80815E
:1030F00091818D939C93FE01E95BFF4F80819181CB
:103100000197F1F7FE01E95BFF4F918380838EE227
:103110000E94831281E00E94300EFE01ED54FF4FA9
:103120001082FE01EE54FF4F1082FE01ED5BFF4F57
:1031300080E090E0AAE7B4E480839183A283B38324
:103140008E01015C1F4FFE01ED5BFF4F60817181BD
:103150008281938120E030E04AE753E40E941F021D
:10316000DC01CB01F80180839183A283B383FE014C
:10317000FF96608171818281938120E030E040E898
:103180005FE30E94250488232CF481E090E09EAF49
:103190008DAF46C0FE01FF9660817181828193816F
:1031A00020E03FEF4FE757E40E94C503181664F58F
:1031B000FE01ED5BFF4F608171818281938120E090
:1031C00030E040E251E40E941F02DC01CB01BC016F
:1031D000CD010E944900DC01CB019EAF8DAF0FC035
:1031E00089E190E09CAF8BAF8BAD9CAD0197F1F77F
:1031F0009CAF8BAF8DAD9EAD01979EAF8DAF8DAD6A
:103200009EAD009769F7C9C0FE01FF96608171818C
:10321000828193810E944900DC01CB019EAF8DAF7A
:103220008DAD9EAD9AAF89AF89AD9AAD0197F1F79B
:103230009AAF89AFB2C081E00E94300E84EA90E07C
:103240000E94141080E061E00E94BB108FEA90E0C1
:103250000E941410FE01ED54FF4F8081882369F411
:1032600087E50E948312DE01AD54BF4FFE01ED548D
:10327000FF4F80818F5F8C9312C0FE01ED54FF4F92
:103280008081813061F48EE40E948312DE01AD54AE
:10329000BF4FFE01ED54FF4F80818F5F8C9380E024
:1032A00090E0AAE7B4E48DAB9EABAFABB8AF6DA92D
:1032B0007EA98FA998AD20E030E04AE753E40E9450
:1032C0001F02DC01CB0189AB9AABABABBCAB69A9EC
:1032D0007AA98BA99CA920E030E040E85FE30E9436
:1032E000250488232CF481E090E098AB8FA73FC0A1
:1032F00069A97AA98BA99CA920E03FEF4FE757E481
:103300000E94C50318164CF56DA97EA98FA998AD2A
:1033100020E030E040E251E40E941F02DC01CB01DA
:10332000BC01CD010E944900DC01CB0198AB8FA705
:103330000FC089E190E09EA78DA78DA59EA501975E
:10334000F1F79EA78DA78FA598A9019798AB8FA796
:103350008FA598A9009769F719C069A97AA98BA9BF
:103360009CA90E944900DC01CB0198AB8FA78FA5D7
:1033700098A99CA78BA78BA59CA50197F1F79CA763
:103380008BA704C0FE01EC54FF4F1082FE01EC54E9
:10339000FF4F8081882309F000CCFE01EE54FF4FDF
:1033A0008081882309F4BDC984E40E94831281E0EE
:1033B0000E94300E89EB90E00E94141080E090E0B3
:1033C000A8E4B3E48FA398A7A9A7BAA76FA178A58B
:1033D00089A59AA520E030E04AE753E40E941F0245
:1033E000DC01CB018BA39CA3ADA3BEA36BA17CA1ED
:1033F0008DA19EA120E030E040E85FE30E9425041B
:1034000088232CF481E090E09AA389A33FC06BA1AC
:103410007CA18DA19EA120E03FEF4FE757E40E94E1
:10342000C50318164CF56FA178A589A59AA520E0CB
:1034300030E040E251E40E941F02DC01CB01BC01FC
:10344000CD010E944900DC01CB019AA389A30FC0E2
:1034500089E190E098A38F8F8F8D98A10197F1F764
:1034600098A38F8F89A19AA101979AA389A389A173
:103470009AA1009769F714C06BA17CA18DA19EA1B0
:103480000E944900DC01CB019AA389A389A19AA1DA
:103490009E8F8D8F8D8D9E8D0197F1F79E8F8D8FD5
:1034A0000E940812FE01E455FF4F8FEE92E09183D7
:1034B000808385C0FE01E455FF4F808191810E9489
:1034C0004D1280E090E0A0E8BFE3898F9A8FAB8F28
:1034D000BC8F698D7A8D8B8D9C8D20E030E04AE722
:1034E00053E40E941F02DC01CB018D8B9E8BAF8BBE
:1034F000B88F6D897E898F89988D20E030E040E813
:103500005FE30E94250488232CF481E090E09C8BEB
:103510008B8B3FC06D897E898F89988D20E03FEF2E
:103520004FE757E40E94C50318164CF5698D7A8D54
:103530008B8D9C8D20E030E040E251E40E941F0220
:10354000DC01CB01BC01CD010E944900DC01CB01B3
:103550009C8B8B8B0FC089E190E09A8B898B89893A
:103560009A890197F1F79A8B898B8B899C890197AE
:103570009C8B8B8B8B899C89009769F714C06D8914
:103580007E898F89988D0E944900DC01CB019C8B3C
:103590008B8B8B899C89988B8F878F8598890197D6
:1035A000F1F7988B8F87DE01A455BF4FFE01E455DC
:1035B000FF4F80819181019611969C938E93FE011D
:1035C000E455FF4F80819181F4E0833E9F0708F42A
:1035D00071CF81E00E94300E89EC90E00E941410BF
:1035E00080E090E0AAE7B3E48B879C87AD87BE8735
:1035F0006B857C858D859E8520E030E04AE753E42D
:103600000E941F02DC01CB018F839887A987BA87AC
:103610006F81788589859A8520E030E040E85FE316
:103620000E94250488232CF481E090E09E838D8302
:103630003FC06F81788589859A8520E03FEF4FE70D
:1036400057E40E94C50318164CF56B857C858D8563
:103650009E8520E030E040E251E40E941F02DC0140
:10366000CB01BC01CD010E944900DC01CB019E834E
:103670008D830FC089E190E09C838B838B819C813B
:103680000197F1F79C838B838D819E8101979E83A7
:103690008D838D819E81009769F714C06F81788535
:1036A00089859A850E944900DC01CB019E838D8328
:1036B0008D819E819A83898389819A810197F1F70F
:1036C0009A83898381E00E94300E81E00E94730713
:1036D000FE01E755FF4F91838083FE01E755FF4FC1
:1036E000808191810E94A907DC01CB01FE01EB558D
:1036F000FF4F80839183A283B38380E060E00E94C8
:10370000BB1085ED90E00E941410FE01EB55FF4FB9
:1037100080819181A281B381BC01CD010E94CD1134
:10372000DC01CB01FE01EF55FF4F80839183A28323
:10373000B383FE01EF55FF4F6081718182819381D8
:1037400020E030E040ED51E40E94F50388236CF066
:1037500080E063E041E00E948E0A8CEF91E06FE030
:1037600040E020E00E94DB100CC080E063E040E01D
:103770000E948E0A8FE060E00E94BB1080E10E94F0
:10378000CE0E80E00E947307FE01E156FF4F918349
:103790008083FE01E156FF4F808191810E94A9073D
:1037A000DC01CB01FE01E556FF4F80839183A283AC
:1037B000B38380E061E00E94BB108CED90E00E943A
:1037C0001410FE01E556FF4F608171818281938163
:1037D00023E333E343E950E40E94F503882354F0E4
:1037E00081E06FEF0E944D0AFE01E555FF4F88E032
:1037F00080831FC2FE01E556FF4F60817181828187
:1038000093812AE939E949E95EE30E9455041816D3
:103810004CF081E060E00E944D0AFE01E555FF4F4B
:10382000108207C2CB52DF4F1882C55DD040FE0127
:10383000E556FF4F608171818281938122E538EBEB
:103840004EE95EE30E94F503882334F021E0CB5279
:10385000DF4F2883C55DD04081E0CB52DF4F988198
:10386000C55DD0408927882369F5CC52DF4F188287
:10387000C45DD040FE01E556FF4F608171818281B9
:10388000938120E030E040E05FE30E945504181689
:1038900034F0E1E0CC52DF4FE883C45DD04081E0FA
:1038A000CC52DF4FF881C45DD0408F27882351F47C
:1038B00081E061E00E944D0AFE01E555FF4F81E085
:1038C0008083B7C1CD52DF4F1882C35DD040FE0167
:1038D000E556FF4F60817181828193812CE53FE83D
:1038E00042E05FE30E94F503882334F021E0CD52EB
:1038F000DF4F2883C35DD04081E0CD52DF4F9881F8
:10390000C35DD0408927882369F5CE52DF4F1882E6
:10391000C25DD040FE01E556FF4F6081718182811A
:10392000938126E636E646E65FE30E9455041816C4
:1039300034F0E1E0CE52DF4FE883C25DD04081E059
:10394000CE52DF4FF881C25DD0408F27882351F4DB
:1039500081E063E00E944D0AFE01E555FF4F82E0E1
:10396000808367C1CF52DF4F1882C15DD040FE0116
:10397000E556FF4F608171818281938123EC35EFA1
:1039800048E65FE30E94F503882334F021E0CF523C
:10399000DF4F2883C15DD04081E0CF52DF4F988157
:1039A000C15DD0408927882369F5C053DF4F188255
:1039B000C05DD040FE01E556FF4F6081718182817C
:1039C00093812AE939E949ED5FE30E94550418160D
:1039D00034F0E1E0C053DF4FE883C05DD04081E0C8
:1039E000C053DF4FF881C05DD0408F27882351F44A
:1039F00081E067E00E944D0AFE01E555FF4F83E03C
:103A0000808317C1C153DF4F1882CF5CD040FE01C5
:103A1000E556FF4F608171818281938128E431EE08
:103A20004AED5FE30E94F503882334F021E0C1539F
:103A3000DF4F2883CF5CD04081E0C153DF4F9881B6
:103A4000CF5CD0408927882369F5C253DF4F1882A5
:103A5000CE5CD040FE01E556FF4F608171818281CE
:103A6000938126E636E646E250E40E945504181695
:103A700034F0E1E0C253DF4FE883CE5CD04081E018
:103A8000C253DF4FF881CE5CD0408F27882351F49A
:103A900081E06FE00E944D0AFE01E555FF4F84E092
:103AA0008083C7C0C353DF4F1882CD5CD040FE0176
:103AB000E556FF4F60817181828193812DE33AE069
:103AC00047E250E40E94F503882334F021E0C35319
:103AD000DF4F2883CD5CD04081E0C353DF4F988116
:103AE000CD5CD0408927882369F5C453DF4F188205
:103AF000CC5CD040FE01E556FF4F60817181828130
:103B000093812AE939E949E550E40E9455041816E1
:103B100034F0E1E0C453DF4FE883CC5CD04081E077
:103B2000C453DF4FF881CC5CD0408F27882351F4F9
:103B300081E06FE10E944D0AFE01E555FF4F85E0EF
:103B4000808377C0C553DF4F1882CB5CD040FE0125
:103B5000E556FF4F608171818281938121E73DE3CA
:103B60004AE550E40E94F503882334F021E0C55370
:103B7000DF4F2883CB5CD04081E0C553DF4F988175
:103B8000CB5CD0408927882369F5C653DF4F188264
:103B9000CA5CD040FE01E556FF4F60817181828191
:103BA000938126E636E646E850E40E94550418164E
:103BB00034F0E1E0C653DF4FE883CA5CD04081E0D7
:103BC000C653DF4FF881CA5CD0408F27882351F459
:103BD00081E06FE30E944D0AFE01E555FF4F86E04C
:103BE000808327C0FE01E556FF4F6081718182818D
:103BF000938122E538EB46E850E40E94F5038823E0
:103C0000C4F0FE01E556FF4F60817181828193818E
:103C100023E333E343E950E40E94250488234CF472
:103C200081E06FE70E944D0AFE01E555FF4F87E0F6
:103C30008083FE01E555FF4F80810E943D1045CDF8
:103C4000AA1BBB1B51E107C0AA1FBB1FA617B707C2
:103C500010F0A61BB70B881F991F5A95A9F78095DE
:103C60009095BC01CD0108952F923F924F925F92A3
:103C70006F927F928F929F92AF92BF92CF92DF927C
:103C8000EF92FF920F931F93CF93DF93CDB7DEB7E1
:103C9000CA1BDB0B0FB6F894DEBF0FBECDBF099475
:103CA0002A88398848885F846E847D848C849B84CC
:103CB000AA84B984C884DF80EE80FD800C811B81DA
:103CC000AA81B981CE0FD11D0FB6F894DEBF0FBE09
:0A3CD000CDBFED010895F894FFCF79
:103CDA0057656C636F6D6520746F20746865005357
:103CEA006D61727420486F6D6500456E746572204F
:103CFA00557365723A00456E74657220506173732C
:103D0A00776F72643A0053797374656D204C6F63F0
:103D1A006B65640057726F6E67204461746100546A
:103D2A00727920416761696E004F70656E696E67CE
:103D3A0020446F6F722E2E2E00446F6F72204F70C8
:103D4A00656E65640054656D703A20004C454453B5
:103D5A003A2000313233340035363738000000005B
:103D6A00000000000000010202030303030404042C
:103D7A0004040404040505050505050505050505EE
:103D8A0005050505050606060606060606060606CE
:103D9A0006060606060606060606060606060606B9
:103DAA00060606060607070707070707070707079E
:103DBA000707070707070707070707070707070789
:103DCA000707070707070707070707070707070779
:103DDA000707070707070707070707070707070769
:103DEA00070707070708080808080808080808084E
:103DFA000808080808080808080808080808080839
:103E0A000808080808080808080808080808080828
:103E1A000808080808080808080808080808080818
:103E2A000808080808080808080808080808080808
:103E3A0008080808080808080808080808080808F8
:103E4A0008080808080808080808080808080808E8
:103E5A0008080808080808080808080808080808D8
:103E6A00080808080800010203040506111B1B15AF
:103E7A00111111113132333435363738392A30239A
:043E8A000000000034
:00000001FF
