:100000000C942A000C9467120C9447000C9447003F
:100010000C9447000C9447000C9447000C94470044
:100020000C9447000C9447000C9447000C94470034
:100030000C9447000C9447000C9447000C94470024
:100040000C9447000C9447000C9447000C94470014
:100050000C94470011241FBECFE5D8E0DEBFCDBF12
:1000600011E0A0E6B0E0EAE3F0E302C005900D92F3
:10007000A038B107D9F711E0A0E8B1E001C01D92A6
:10008000A238B107E1F70E9470170C941B180C946A
:100090000000EF92FF920F931F937B018C0120E0F1
:1000A00030E040E05FE40E94F50388238CF0C80153
:1000B000B70120E030E040E05FE40E94C1010E940F
:1000C00055049B01AC01205030404040504806C0D0
:1000D000C801B7010E9455049B01AC01B901CA01D6
:1000E0001F910F91FF90EF900895A0E0B0E0EBE733
:1000F000F0E00C94E417DC012B01FA019C919230A2
:1001000008F439C1EB018881823008F433C194309E
:1001100069F4843009F02FC111969C91119789815F
:10012000981709F428C1A0E6B0E025C1843009F48D
:1001300021C18230A9F4923009F01DC19A01AD01AC
:1001400088E0EA010990AE01E90109929E0181501F
:10015000C1F7E201898111969C918923818308C1AD
:10016000923009F407C112962D903C901397EB0141
:100170008A819B811496AD90BD90CD90DC901797AD
:10018000EC80FD800E811F819101281B390BB90184
:1001900037FF04C066277727621B730B6032710537
:1001A0000CF061C0121613066CF537014801062EDB
:1001B00004C096948794779467940A94D2F721E0C8
:1001C00030E040E050E004C0220F331F441F551FB1
:1001D0006A95D2F721503040404050402E213F21B7
:1001E00040235123211531054105510521F021E01E
:1001F00030E040E050E079018A01E628F72808293C
:1002000019293CC0232BD1F1260E371E350146019A
:10021000062E04C096948794779467940A94D2F734
:1002200021E030E040E050E004C0220F331F441FC3
:10023000551F6A95D2F721503040404050402A2146
:100240003B214C215D21211531054105510521F04E
:1002500021E030E040E050E059016A01A628B728CB
:10026000C828D9280BC0821593052CF01C01AA249C
:10027000BB24650103C0EE24FF24870111969C91E5
:10028000D20111968C91981709F445C0992339F041
:10029000A80197012A193B094C095D0906C0A6016E
:1002A00095012E193F09400B510B57FD08C01182D3
:1002B0003382228224833583468357831DC081E0A5
:1002C00081833382228288279927DC01821B930B4A
:1002D000A40BB50B84839583A683B7830DC0220F2F
:1002E000331F441F551F24833583468357838281E0
:1002F000938101979383828324813581468157813D
:10030000DA01C9010197A109B1098F5F9F4FAF4F72
:10031000BF4328F30BC0918333822282EA0CFB1C7B
:100320000C1D1D1DE482F5820683178383E0808304
:10033000248135814681578157FF1AC0C901AA27F8
:1003400097FDA095BA2F81709070A070B0705695EF
:10035000479537952795822B932BA42BB52B848318
:100360009583A683B7838281938101969383828349
:10037000DF0101C0D201CD01CDB7DEB7E2E10C94BF
:100380000018A0E2B0E0E7ECF1E00C94F01769830C
:100390007A838B839C832D833E834F835887E9E048
:1003A000EE2EF12CEC0EFD1ECE010196B7010E943F
:1003B00046068E010F5E1F4FCE010596B8010E94C2
:1003C00046068A8991E089278A8BC701B801AE0168
:1003D000475E5F4F0E9475000E947105A096E6E09F
:1003E0000C940C18A0E2B0E0E8EFF1E00C94F017E8
:1003F00069837A838B839C832D833E834F835887C5
:10040000F9E0EF2EF12CEC0EFD1ECE010196B701A6
:100410000E9446068E010F5E1F4FCE010596B80161
:100420000E944606C701B801AE01475E5F4F0E94B9
:1004300075000E947105A096E6E00C940C18A0E2ED
:10044000B0E0E5E2F2E00C94E41769837A838B83F1
:100450009C832D833E834F835887CE010196BE0136
:10046000675F7F4F0E944606CE010596BE016F5E14
:100470007F4F0E9446069985923088F089898230A4
:10048000C8F0943019F4823051F404C0843029F457
:10049000923081F480E690E0C6C0923049F420E0CA
:1004A0009A858A89981321E02A87CE010996BBC0D4
:1004B000823049F420E09A858A89981321E02A8BBA
:1004C000CE014196B0C02D843E844F8458886D88FB
:1004D0007E888F88988CEE24FF248701AA24BB2471
:1004E000650140E050E060E070E0E0E0F0E0C10174
:1004F00081709070892BE9F0E60CF71C081D191D1E
:100500009A01AB012A0D3B1D4C1D5D1D80E090E062
:10051000A0E0B0E0E614F7040805190520F481E036
:1005200090E0A0E0B0E0BA01A901480F591F6A1F8E
:100530007B1FAA0CBB1CCC1CDD1C97FE08C081E0F5
:1005400090E0A0E0B0E0A82AB92ACA2ADB2A3196B6
:10055000E032F10549F0660C771C881C991C569412
:10056000479437942794C3CFFA85EA892B893C892D
:100570008B859C85280F391F2E5F3F4F17C0CA01FE
:1005800081709070892B61F016950795F794E79428
:1005900080E090E0A0E0B0E8E82AF92A0A2B1B2BC3
:1005A00076956795579547952F5F3F4F77FDE7CF36
:1005B0000CC0440F551F661F771F17FD4160EE0CDE
:1005C000FF1C001F111F21503040403090E05907A0
:1005D00090E0690790E4790760F32B8F3C8FDB0193
:1005E000CA018F779070A070B07080349105A1051A
:1005F000B10561F447FD0AC0E114F10401051105DC
:1006000029F0405C5F4F6F4F7F4F40781A8EFE1786
:1006100011F081E08A8F4D8F5E8F6F8F78A383E01A
:10062000898FCE0149960E947105A096E2E10C9453
:100630000018A8E1B0E0EFE1F3E00C94EC17698357
:100640007A838B839C832D833E834F835887B9E0C5
:10065000EB2EF12CEC0EFD1ECE010196B7010E948F
:1006600046068E010F5E1F4FCE010596B8010E940F
:1006700046062985223008F47EC03989323010F4CC
:10068000B8017CC08A859A8989278A87243011F02D
:10069000223031F4231709F06EC060E670E06EC0BE
:1006A000343039F41D861E861F86188A1C861B86E8
:1006B00004C0323021F484E08987B7015FC02B8504
:1006C0003C858B899C89281B390B3C872B87ED84C3
:1006D000FE840F851889AD88BE88CF88D88CEA142F
:1006E000FB040C051D0540F4EE0CFF1C001F111F40
:1006F000215030403C872B8720E030E040E050E044
:1007000080E090E0A0E0B0E460E070E0EA14FB0478
:100710000C051D0540F0282B392B4A2B5B2BEA18C2
:10072000FB080C091D09B695A79597958795EE0CC2
:10073000FF1C001F111F6F5F7F4F6F31710531F775
:10074000DA01C9018F779070A070B0708034910584
:10075000A105B10561F427FD0AC0E114F10401050A
:10076000110529F0205C3F4F4F4F5F4F20782D87B8
:100770003E874F87588BBE01675F7F4FCB010E943A
:1007800071056896EAE00C940818A8E1B0E0EBEC7B
:10079000F3E00C94F01769837A838B839C832D8319
:1007A0003E834F83588789E0E82EF12CEC0EFD1E26
:1007B000CE010196B7010E9446068E010F5E1F4FC3
:1007C000CE010596B8010E9446068985823040F028
:1007D0008989823028F0C701B8010E94BE0601C095
:1007E0008FEF6896E6E00C940C18A8E1B0E0EBEF10
:1007F000F3E00C94F01769837A838B839C832D83B9
:100800003E834F83588789E0E82EF12CEC0EFD1EC5
:10081000CE010196B7010E9446068E010F5E1F4F62
:10082000CE010596B8010E9446068985823040F0C7
:100830008989823028F0C701B8010E94BE0601C034
:100840008FEF6896E6E00C940C18A8E1B0E0EBE2BC
:10085000F4E00C94F01769837A838B839C832D8357
:100860003E834F83588789E0E82EF12CEC0EFD1E65
:10087000CE010196B7010E9446068E010F5E1F4F02
:10088000CE010596B8010E9446068985823040F067
:100890008989823028F0C701B8010E94BE0601C0D4
:1008A00081E06896E6E00C940C18ACE0B0E0EBE573
:1008B000F4E00C94F41769837A838B839C83CE01D4
:1008C0000196BE016B5F7F4F0E9446068D8182308C
:1008D00061F1823050F1843021F48E81882351F10E
:1008E0002EC02F81388537FD20C06E812F31310514
:1008F0001CF06623F9F023C08EE190E0821B930B7D
:1009000029853A854B855C8504C056954795379572
:1009100027958A95D2F76623B1F05095409530958A
:1009200021953F4F4F4F5F4F0EC020E030E040E039
:1009300050E009C02FEF3FEF4FEF5FE704C020E02A
:1009400030E040E050E8B901CA012C96E2E00C9496
:100950001018A8E0B0E0EFEAF4E00C94EC177B018B
:100960008C01611571058105910519F482E0898377
:1009700060C083E089838EE1C82ED12CDC82CB82DB
:10098000ED82FE820F831887C801B7010E942205FD
:10099000FC013197F7FF3BC0222733272E1B3F0B6B
:1009A00057016801022E04C0D694C794B794A79447
:1009B0000A94D2F740E050E060E070E081E090E01F
:1009C000A0E0B0E004C0880F991FAA1FBB1F2A95A2
:1009D000D2F70197A109B1098E219F21A023B1234C
:1009E0000097A105B10521F041E050E060E070E022
:1009F0004A295B296C297D294D835E836F83788723
:100A00008EE190E08E1B9F0B9C838B8312C03097EE
:100A100081F00E2E04C0EE0CFF1C001F111F0A9463
:100A2000D2F7ED82FE820F831887CE1ADF0ADC82AE
:100A3000CB821A82CE0101960E9471052896EAE0C7
:100A40000C940818EF92FF920F931F937B018C0177
:100A500080E0E81680E0F80681E0080780E01807EB
:100A600088F48FEFE816F1040105110531F028F044
:100A700088E090E0A0E0B0E017C080E090E0A0E067
:100A8000B0E012C080E0E81680E0F80680E00807D9
:100A900081E0180728F088E190E0A0E0B0E004C011
:100AA00080E190E0A0E0B0E020E230E040E050E003
:100AB000281B390B4A0B5B0B04C016950795F7945E
:100AC000E7948A95D2F7F701E859FF4F8081281BF8
:100AD000310941095109C9011F910F91FF90EF9010
:100AE0000895DF92EF92FF920F931F93FC01E48031
:100AF000F58006811781D1808081823048F480E0C2
:100B000090E0A0E1B0E0E82AF92A0A2B1B2BA5C04F
:100B1000843009F49FC0823021F4EE24FF24870141
:100B200005C0E114F1040105110519F4E0E0F0E05D
:100B300096C0628173819FEF623879070CF05BC0C9
:100B400022E83FEF261B370B2A3131052CF020E03D
:100B500030E040E050E02AC0B801A701022E04C0F6
:100B600076956795579547950A94D2F781E090E07E
:100B7000A0E0B0E004C0880F991FAA1FBB1F2A95F0
:100B8000D2F70197A109B1098E219F21A023B1239A
:100B90000097A105B10521F081E090E0A0E0B0E070
:100BA0009A01AB01282B392B4A2B5B2BDA01C901A7
:100BB0008F779070A070B07080349105A105B10559
:100BC00039F427FF09C0205C3F4F4F4F5F4F04C0EF
:100BD000215C3F4F4F4F5F4FE0E0F0E02030A0E05E
:100BE0003A07A0E04A07A0E45A0710F0E1E0F0E07D
:100BF00079018A0127C06038710564F5FB01E1586D
:100C0000FF4FD801C7018F779070A070B07080340B
:100C10009105A105B10539F4E7FE0DC080E490E02F
:100C2000A0E0B0E004C08FE390E0A0E0B0E0E80E08
:100C3000F91E0A1F1B1F17FF05C016950795F7948D
:100C4000E794319687E016950795F794E7948A958F
:100C5000D1F705C0EE24FF248701EFEFF0E06E2FFF
:100C6000679566276795902F9F77D794DD24D79453
:100C70008E2F8695492F462B582F5D29B701CA0123
:100C80001F910F91FF90EF90DF900895FC01DB0121
:100C9000408151812281622F6F7770E0221F2227CD
:100CA000221F9381892F880F822B282F30E0991FD4
:100CB0009927991F11969C93119721153105A9F534
:100CC000411551056105710511F482E037C082E8D4
:100CD0009FEF13969C938E9312979A01AB0167E056
:100CE000220F331F441F551F6A95D1F783E08C9361
:100CF0000DC0220F331F441F551F12968D919C91DA
:100D00001397019713969C938E931297203080E04F
:100D1000380780E0480780E4580758F314962D936D
:100D20003D934D935C93179708952F3F310579F4C8
:100D3000411551056105710519F484E08C930895FE
:100D400064FF03C081E08C9312C01C9210C02F5727
:100D5000304013963C932E93129783E08C9387E058
:100D6000440F551F661F771F8A95D1F7706414963C
:100D70004D935D936D937C93179708951F93DC01BA
:100D8000FB019C91923008F447C08081823008F4C6
:100D900043C0943051F411961C91843099F58181AF
:100DA000682F70E0611B71093FC0843021F09230E0
:100DB00031F48230B9F18181882389F12DC01196F7
:100DC0001C9111978230F1F081811817D9F4129695
:100DD0002D913C911397828193818217930794F010
:100DE00028173907BCF014968D919D910D90BC91F8
:100DF000A02D2481358146815781281739074A075C
:100E00005B0718F4112341F00AC082179307A40767
:100E1000B50740F4112319F061E070E005C06FEFF1
:100E20007FEF02C060E070E0CB011F910895DF9377
:100E3000CF93CDB7DEB7E7E2F0E01082A7E2B0E0F3
:100E4000E7E2F0E080818C93A6E2B0E0E6E2F0E039
:100E5000808180628C93A6E2B0E0E6E2F0E08081DF
:100E600080688C93A6E2B0E0E6E2F0E080818660E4
:100E70008C93A6E2B0E0E6E2F0E0808180618C93A2
:100E8000CF91DF910895DF93CF930F92CDB7DEB767
:100E90008983A7E2B0E0E7E2F0E090818981892BC5
:100EA0008C93A6E2B0E0E6E2F0E0808180648C936F
:100EB000E6E2F0E0808182958F70882F90E081706B
:100EC00090700097A9F3A6E2B0E0E6E2F0E080813E
:100ED00080618C93E4E2F0E0808191810F90CF916A
:100EE000DF910895DF93CF9300D000D000D0CDB72D
:100EF000DEB79E838D838D819E81CC01A0E0B0E022
:100F0000BC01CD010E94A904DC01CB01BC01CD01D3
:100F100020E030E040E854E40E941903DC01CB01FA
:100F2000BC01CD0120E030E040EA50E40E941F0205
:100F3000DC01CB0189839A83AB83BC8389819A814D
:100F4000AB81BC81BC01CD0126960FB6F894DEBF03
:100F50000FBECDBFCF91DF9108950F931F93DF9305
:100F6000CF93CDB7DEB7CF58D0400FB6F894DEBFE1
:100F70000FBECDBF0E94E412FE01E357FF4F8083F6
:100F800006C00E94E412FE01E357FF4F8083FE017A
:100F9000E357FF4F80818033A0F3FE01E357FF4FFB
:100FA00080818A3370F7FE01E357FF4F8081282F3D
:100FB00030E0C257DF4F39832883CE58D040C25724
:100FC000DF4F88819981CE58D0408433910509F450
:100FD00059C3C257DF4FE881F981CE58D040E5337D
:100FE000F1059CF5C257DF4F28813981CE58D0409A
:100FF0002133310509F41EC1C257DF4F8881998121
:10100000CE58D040823391055CF4C257DF4FE8815F
:10101000F981CE58D040E033F10509F453C04AC6F7
:10102000C257DF4F28813981CE58D0402233310555
:1010300009F4B8C1C257DF4F88819981CE58D0409A
:101040008333910509F466C235C6C257DF4FE88184
:10105000F981CE58D040E733F10509F4CAC4C2572C
:10106000DF4F28813981CE58D04028333105ACF488
:10107000C257DF4F88819981CE58D0408533910582
:1010800009F4B8C3C257DF4FE881F981CE58D04088
:10109000E633F10509F437C40DC6C257DF4F288186
:1010A0003981CE58D0402833310509F418C5C257CC
:1010B000DF4F88819981CE58D0408933910509F45A
:1010C00084C5F8C580E30E944417FE01E757FF4F2F
:1010D00080E090E0A0EFB1E480839183A283B383AA
:1010E0008E010B571F4FFE01E757FF4F6081718143
:1010F0008281938120E030E04AEF54E40E941F0295
:10110000DC01CB01F80180839183A283B383FE01CC
:10111000EB57FF4F608171818281938120E030E045
:1011200040E85FE30E942504882344F4FE01ED5764
:10113000FF4F81E090E09183808364C0FE01EB5714
:10114000FF4F608171818281938120E03FEF4FE703
:1011500057E40E94C50318160CF043C0FE01E75780
:10116000FF4F608171818281938120E030E040E215
:1011700051E40E941F02DC01CB018E010D571F4F6D
:10118000BC01CD010E944900DC01CB01F801918333
:1011900080831FC0FE01EF57FF4F88EC90E09183E2
:1011A0008083FE01EF57FF4F808191810197F1F716
:1011B000FE01EF57FF4F91838083DE01AD57BF4F94
:1011C000FE01ED57FF4F80819181019711969C930D
:1011D0008E93FE01ED57FF4F808191810097D1F6EC
:1011E00069C58E010D571F4FFE01EB57FF4F608100
:1011F0007181828193810E944900DC01CB01F80159
:1012000091838083DE01A158BF4FFE01ED57FF4F50
:101210008081918111969C938E93FE01E158FF4F3E
:10122000808191810197F1F7FE01E158FF4F918391
:10123000808340C581E30E944417FE01E558FF4FBB
:1012400080E090E0A0EFB1E480839183A283B38338
:101250008E0109581F4FFE01E558FF4F60817181D3
:101260008281938120E030E04AEF54E40E941F0223
:10127000DC01CB01F80180839183A283B383FE015B
:10128000E958FF4F608171818281938120E030E0D5
:1012900040E85FE30E942504882344F4FE01EB58F4
:1012A000FF4F81E090E09183808364C0FE01E958A4
:1012B000FF4F608171818281938120E03FEF4FE792
:1012C00057E40E94C50318160CF043C0FE01E55810
:1012D000FF4F608171818281938120E030E040E2A4
:1012E00051E40E941F02DC01CB018E010B581F4FFD
:1012F000BC01CD010E944900DC01CB01F8019183C2
:1013000080831FC0FE01ED58FF4F88EC90E0918371
:101310008083FE01ED58FF4F808191810197F1F7A5
:10132000FE01ED58FF4F91838083DE01AB58BF4F24
:10133000FE01EB58FF4F80819181019711969C939C
:101340008E93FE01EB58FF4F808191810097D1F67B
:10135000B1C48E010B581F4FFE01E958FF4F608149
:101360007181828193810E944900DC01CB01F801E7
:1013700091838083DE01AF58BF4FFE01EB58FF4FD2
:101380008081918111969C938E93FE01EF58FF4FBF
:10139000808191810197F1F7FE01EF58FF4F918312
:1013A000808388C482E30E944417FE01E359FF4F03
:1013B00080E090E0A0EFB1E480839183A283B383C7
:1013C0008E0107591F4FFE01E359FF4F6081718164
:1013D0008281938120E030E04AEF54E40E941F02B2
:1013E000DC01CB01F80180839183A283B383FE01EA
:1013F000E759FF4F608171818281938120E030E065
:1014000040E85FE30E942504882344F4FE01E95983
:10141000FF4F81E090E09183808364C0FE01E75933
:10142000FF4F608171818281938120E03FEF4FE720
:1014300057E40E94C50318160CF043C0FE01E3599F
:10144000FF4F608171818281938120E030E040E232
:1014500051E40E941F02DC01CB018E0109591F4F8C
:10146000BC01CD010E944900DC01CB01F801918350
:1014700080831FC0FE01EB59FF4F88EC90E0918301
:101480008083FE01EB59FF4F808191810197F1F735
:10149000FE01EB59FF4F91838083DE01A959BF4FB5
:1014A000FE01E959FF4F80819181019711969C932C
:1014B0008E93FE01E959FF4F808191810097D1F60B
:1014C000F9C38E0109591F4FFE01E759FF4F608193
:1014D0007181828193810E944900DC01CB01F80176
:1014E00091838083DE01AD59BF4FFE01E959FF4F63
:1014F0008081918111969C938E93FE01ED59FF4F4F
:10150000808191810197F1F7FE01ED59FF4F9183A1
:101510008083D0C383E30E944417FE01E15AFF4F4A
:1015200080E090E0A0EFB1E480839183A283B38355
:101530008E01055A1F4FFE01E15AFF4F60817181F4
:101540008281938120E030E04AEF54E40E941F0240
:10155000DC01CB01F80180839183A283B383FE0178
:10156000E55AFF4F608171818281938120E030E0F4
:1015700040E85FE30E942504882344F4FE01E75A13
:10158000FF4F81E090E09183808364C0FE01E55AC3
:10159000FF4F608171818281938120E03FEF4FE7AF
:1015A00057E40E94C50318160CF043C0FE01E15A2F
:1015B000FF4F608171818281938120E030E040E2C1
:1015C00051E40E941F02DC01CB018E01075A1F4F1C
:1015D000BC01CD010E944900DC01CB01F8019183DF
:1015E00080831FC0FE01E95AFF4F88EC90E0918391
:1015F0008083FE01E95AFF4F808191810197F1F7C5
:10160000FE01E95AFF4F91838083DE01A75ABF4F45
:10161000FE01E75AFF4F80819181019711969C93BB
:101620008E93FE01E75AFF4F808191810097D1F69A
:1016300041C38E01075A1F4FFE01E55AFF4F6081DB
:101640007181828193810E944900DC01CB01F80104
:1016500091838083DE01AB5ABF4FFE01E75AFF4FF3
:101660008081918111969C938E93FE01EB5AFF4FDE
:10167000808191810197F1F7FE01EB5AFF4F918331
:10168000808318C384E30E944417FE01EF5AFF4F82
:1016900080E090E0A0EFB1E480839183A283B383E4
:1016A0008E01035B1F4FFE01EF5AFF4F6081718176
:1016B0008281938120E030E04AEF54E40E941F02CF
:1016C000DC01CB01F80180839183A283B383FE0107
:1016D000E35BFF4F608171818281938120E030E084
:1016E00040E85FE30E942504882344F4FE01E55BA3
:1016F000FF4F81E090E09183808364C0FE01E35B53
:10170000FF4F608171818281938120E03FEF4FE73D
:1017100057E40E94C50318160CF043C0FE01EF5AAF
:10172000FF4F608171818281938120E030E040E24F
:1017300051E40E941F02DC01CB018E01055B1F4FAB
:10174000BC01CD010E944900DC01CB01F80191836D
:1017500080831FC0FE01E75BFF4F88EC90E0918320
:101760008083FE01E75BFF4F808191810197F1F754
:10177000FE01E75BFF4F91838083DE01A55BBF4FD6
:10178000FE01E55BFF4F80819181019711969C934B
:101790008E93FE01E55BFF4F808191810097D1F62A
:1017A00089C28E01055B1F4FFE01E35BFF4F608125
:1017B0007181828193810E944900DC01CB01F80193
:1017C00091838083DE01A95BBF4FFE01E55BFF4F84
:1017D0008081918111969C938E93FE01E95BFF4F6E
:1017E000808191810197F1F7FE01E95BFF4F9183C1
:1017F000808360C285E30E944417FE01ED5BFF4FCA
:1018000080E090E0A0EFB1E480839183A283B38372
:101810008E01015C1F4FFE01ED5BFF4F6081718106
:101820008281938120E030E04AEF54E40E941F025D
:10183000DC01CB01F80180839183A283B383FE0195
:10184000FF96608171818281938120E030E040E8E1
:101850005FE30E94250488232CF481E090E09EAF92
:101860008DAF46C0FE01FF966081718182819381B8
:1018700020E03FEF4FE757E40E94C503181664F5D8
:10188000FE01ED5BFF4F608171818281938120E0D9
:1018900030E040E251E40E941F02DC01CB01BC01B8
:1018A000CD010E944900DC01CB019EAF8DAF0FC07E
:1018B00088EC90E09CAF8BAF8BAD9CAD0197F1F7BE
:1018C0009CAF8BAF8DAD9EAD01979EAF8DAF8DADB3
:1018D0009EAD009769F7EEC1FE01FF9660817181B0
:1018E000828193810E944900DC01CB019EAF8DAFC4
:1018F0008DAD9EAD9AAF89AF89AD9AAD0197F1F7E5
:101900009AAF89AFD7C186E30E94441780E090E088
:10191000A0EFB1E48DAB9EABAFABB8AF6DA97EA924
:101920008FA998AD20E030E04AEF54E40E941F02F6
:10193000DC01CB0189AB9AABABABBCAB69A97AA993
:101940008BA99CA920E030E040E85FE30E942504D9
:1019500088232CF481E090E098AB8FA73FC069A961
:101960007AA98BA99CA920E03FEF4FE757E40E949A
:10197000C50318164CF56DA97EA98FA998AD20E076
:1019800030E040E251E40E941F02DC01CB01BC01C7
:10199000CD010E944900DC01CB0198AB8FA70FC09D
:1019A00088EC90E09EA78DA78DA59EA50197F1F7E5
:1019B0009EA78DA78FA598A9019798AB8FA78FA5F4
:1019C00098A9009769F776C169A97AA98BA99CA9FA
:1019D0000E944900DC01CB0198AB8FA78FA598A985
:1019E0009CA78BA78BA59CA50197F1F79CA78BA71C
:1019F00061C187E30E94441780E090E0A0EFB1E46A
:101A00008FA398A7A9A7BAA76FA178A589A59AA51A
:101A100020E030E04AEF54E40E941F02DC01CB01D9
:101A20008BA39CA3ADA3BEA36BA17CA18DA19EA102
:101A300020E030E040E85FE30E94250488232CF496
:101A400081E090E09AA389A33FC06BA17CA18DA106
:101A50009EA120E03FEF4FE757E40E94C503181610
:101A60004CF56FA178A589A59AA520E030E040E269
:101A700051E40E941F02DC01CB01BC01CD010E9498
:101A80004900DC01CB019AA389A30FC088EC90E048
:101A900098A38F8F8F8D98A10197F1F798A38F8FBF
:101AA00089A19AA101979AA389A389A19AA10097D4
:101AB00069F700C16BA17CA18DA19EA10E94490084
:101AC000DC01CB019AA389A389A19AA19E8F8D8F56
:101AD0008D8D9E8D0197F1F79E8F8D8FEBC088E3E2
:101AE0000E94441780E090E0A0EFB1E4898F9A8FC4
:101AF000AB8FBC8F698D7A8D8B8D9C8D20E030E013
:101B00004AEF54E40E941F02DC01CB018D8B9E8BB7
:101B1000AF8BB88F6D897E898F89988D20E030E0FA
:101B200040E85FE30E94250488232CF481E090E0E4
:101B30009C8B8B8B3FC06D897E898F89988D20E02F
:101B40003FEF4FE757E40E94C50318164CF5698D27
:101B50007A8D8B8D9C8D20E030E040E251E40E9434
:101B60001F02DC01CB01BC01CD010E944900DC0158
:101B7000CB019C8B8B8B0FC088EC90E09A8B898B70
:101B800089899A890197F1F79A8B898B8B899C892E
:101B900001979C8B8B8B8B899C89009769F78AC0F6
:101BA0006D897E898F89988D0E944900DC01CB0167
:101BB0009C8B8B8B8B899C89988B8F878F85988941
:101BC0000197F1F7988B8F8775C089E30E944417BE
:101BD00080E090E0A0EFB1E48B879C87AD87BE8763
:101BE0006B857C858D859E8520E030E04AEF54E44E
:101BF0000E941F02DC01CB018F839887A987BA87D7
:101C00006F81788589859A8520E030E040E85FE340
:101C10000E94250488232CF481E090E09E838D832C
:101C20003FC06F81788589859A8520E03FEF4FE737
:101C300057E40E94C50318164CF56B857C858D858D
:101C40009E8520E030E040E251E40E941F02DC016A
:101C5000CB01BC01CD010E944900DC01CB019E8378
:101C60008D830FC088EC90E09C838B838B819C815B
:101C70000197F1F79C838B838D819E8101979E83D1
:101C80008D838D819E81009769F714C06F8178855F
:101C900089859A850E944900DC01CB019E838D8352
:101CA0008D819E819A83898389819A810197F1F739
:101CB0009A838983C157DF4F0FB6F894DEBF0FBEFA
:101CC000CDBFCF91DF911F910F910895DF93CF93F7
:101CD00000D000D0CDB7DEB789836A838981282FF1
:101CE00030E03C832B838B819C8181309105D1F046
:101CF0002B813C81223031052CF48B819C81009713
:101D000061F01EC02B813C812230310581F08B8136
:101D10009C818330910581F013C0EAE3F0E08A8171
:101D200080830EC0E7E3F0E08A81808309C0E4E3AA
:101D3000F0E08A81808304C0E1E3F0E08A8180835F
:101D40000F900F900F900F90CF91DF910895DF9338
:101D5000CF93CDB7DEB727970FB6F894DEBF0FBE8F
:101D6000CDBF89836A834B838B81813009F06FC03B
:101D70008981282F30E03F832E838E819F8181309F
:101D8000910549F12E813F81223031052CF48E815D
:101D90009F81009761F0D2C02E813F8122303105B2
:101DA00071F18E819F8183309105E9F1C7C0AAE36B
:101DB000B0E0EAE3F0E08081482F8A81282F30E00C
:101DC00081E090E0022E02C0880F991F0A94E2F78A
:101DD000842B8C93B3C0A7E3B0E0E7E3F0E080810D
:101DE000482F8A81282F30E081E090E0022E02C047
:101DF000880F991F0A94E2F7842B8C939FC0A4E369
:101E0000B0E0E4E3F0E08081482F8A81282F30E0C1
:101E100081E090E0022E02C0880F991F0A94E2F739
:101E2000842B8C938BC0A1E3B0E0E1E3F0E08081F0
:101E3000482F8A81282F30E081E090E0022E02C0F6
:101E4000880F991F0A94E2F7842B8C9377C08B81BB
:101E5000882309F073C08981282F30E03D832C83CB
:101E60008C819D818130910559F12C813D812230F9
:101E700031052CF48C819D81009769F05FC02C8125
:101E80003D812230310589F18C819D81833091051E
:101E900009F440C053C0AAE3B0E0EAE3F0E0808177
:101EA000482F8A81282F30E081E090E0022E02C086
:101EB000880F991F0A94E2F7809584238C933EC083
:101EC000A7E3B0E0E7E3F0E08081482F8A81282F84
:101ED00030E081E090E0022E02C0880F991F0A9442
:101EE000E2F7809584238C9329C0A4E3B0E0E4E377
:101EF000F0E08081482F8A81282F30E081E090E057
:101F0000022E02C0880F991F0A94E2F7809584235D
:101F10008C9314C0A1E3B0E0E1E3F0E08081482FAE
:101F20008A81282F30E081E090E0022E02C0880FE5
:101F3000991F0A94E2F7809584238C9327960FB615
:101F4000F894DEBF0FBECDBFCF91DF910895DF9330
:101F5000CF9300D000D0CDB7DEB789836A83898163
:101F6000282F30E03C832B838B819C81813091052D
:101F7000D1F02B813C81223031052CF48B819C8166
:101F8000009761F01EC02B813C812230310581F029
:101F90008B819C818330910581F013C0EBE3F0E0ED
:101FA0008A8180830EC0E8E3F0E08A81808309C0E3
:101FB000E5E3F0E08A81808304C0E2E3F0E08A8117
:101FC00080830F900F900F900F90CF91DF91089525
:101FD000DF93CF93CDB7DEB727970FB6F894DEBF68
:101FE0000FBECDBF89836A834B838B81813009F01B
:101FF0006FC08981282F30E03F832E838E819F819F
:102000008130910549F12E813F81223031052CF438
:102010008E819F81009761F0D2C02E813F81223056
:10202000310571F18E819F8183309105E9F1C7C03F
:10203000ABE3B0E0EBE3F0E08081482F8A81282F0A
:1020400030E081E090E0022E02C0880F991F0A94D0
:10205000E2F7842B8C93B3C0A8E3B0E0E8E3F0E0B0
:102060008081482F8A81282F30E081E090E0022E85
:1020700002C0880F991F0A94E2F7842B8C939FC0AB
:10208000A5E3B0E0E5E3F0E08081482F8A81282FC6
:1020900030E081E090E0022E02C0880F991F0A9480
:1020A000E2F7842B8C938BC0A2E3B0E0E2E3F0E094
:1020B0008081482F8A81282F30E081E090E0022E35
:1020C00002C0880F991F0A94E2F7842B8C9377C083
:1020D0008B81882309F073C08981282F30E03D83EC
:1020E0002C838C819D818130910559F12C813D811A
:1020F000223031052CF48C819D81009769F05FC0FE
:102100002C813D812230310589F18C819D81833084
:10211000910509F440C053C0ABE3B0E0EBE3F0E05D
:102120008081482F8A81282F30E081E090E0022EC4
:1021300002C0880F991F0A94E2F7809584238C933C
:102140003EC0A8E3B0E0E8E3F0E08081482F8A8158
:10215000282F30E081E090E0022E02C0880F991F06
:102160000A94E2F7809584238C9329C0A5E3B0E01C
:10217000E5E3F0E08081482F8A81282F30E081E07C
:1021800090E0022E02C0880F991F0A94E2F7809512
:1021900084238C9314C0A2E3B0E0E2E3F0E08081FA
:1021A000482F8A81282F30E081E090E0022E02C083
:1021B000880F991F0A94E2F7809584238C932796C1
:1021C0000FB6F894DEBF0FBECDBFCF91DF9108955B
:1021D000DF93CF9300D000D00F92CDB7DEB78A83C4
:1021E0006B838A81282F30E03D832C834C815D8175
:1021F0004130510541F18C819D818230910534F44B
:102200002C813D812115310561F052C04C815D81E9
:102210004230510551F18C819D8183309105B9F196
:1022200047C0E9E3F0E08081282F30E08B81882FE0
:1022300090E0A90102C0559547958A95E2F7CA0139
:102240008170898335C0E6E3F0E08081282F30E09B
:102250008B81882F90E0A90102C0559547958A95FA
:10226000E2F7CA018170898323C0E3E3F0E0808153
:10227000282F30E08B81882F90E0A90102C055956E
:1022800047958A95E2F7CA018170898311C0E0E31E
:10229000F0E08081282F30E08B81882F90E0A90129
:1022A00002C0559547958A95E2F7CA0181708983E6
:1022B00089810F900F900F900F900F90CF91DF9129
:1022C0000895DF93CF9300D000D0CDB7DEB78983D8
:1022D0006A838981282F30E03C832B838B819C810A
:1022E0008130910549F12B813C81223031052CF45C
:1022F0008B819C81009761F05AC02B813C812230F8
:10230000310571F18B819C8183309105E9F14FC0DA
:10231000ABE3B0E0EBE3F0E08081482F8A81282F27
:1023200030E081E090E0022E02C0880F991F0A94ED
:10233000E2F7842B8C933BC0A8E3B0E0E8E3F0E045
:102340008081482F8A81282F30E081E090E0022EA2
:1023500002C0880F991F0A94E2F7842B8C9327C040
:10236000A5E3B0E0E5E3F0E08081482F8A81282FE3
:1023700030E081E090E0022E02C0880F991F0A949D
:10238000E2F7842B8C9313C0A2E3B0E0E2E3F0E029
:102390008081482F8A81282F30E081E090E0022E52
:1023A00002C0880F991F0A94E2F7842B8C930F9038
:1023B0000F900F900F90CF91DF910895DF93CF93FF
:1023C000CDB7DEB7A5E5B0E0E5E5F0E080818E7F32
:1023D0008C93A5E5B0E0E5E5F0E0808182608C9328
:1023E000ABE5B0E0EBE5F0E0808180648C93CF91C9
:1023F000DF910895DF93CF93CDB7DEB7ABE5B0E0C3
:10240000EBE5F0E080818F7B8C93CF91DF91089595
:10241000DF93CF93CDB7DEB7A5E5B0E0E5E5F0E01B
:1024200080818B7F8C93A5E5B0E0E5E5F0E08081CD
:1024300088608C93ABE5B0E0EBE5F0E080818068EC
:102440008C93CF91DF910895DF93CF93CDB7DEB713
:10245000A4E5B0E0E4E5F0E080818F7B8C93ABE510
:10246000B0E0EBE5F0E0808180628C93CF91DF916A
:102470000895DF93CF93CDB7DEB7AFE5B0E0EFE5DA
:10248000F0E0808180688C93CF91DF910895DF9395
:10249000CF93CDB7DEB7AFE5B0E0EFE5F0E08081F8
:1024A0008F778C93CF91DF910895DF93CF9300D0F6
:1024B000CDB7DEB79A83898389819A819093810110
:1024C000809380010F900F90CF91DF9108951F921C
:1024D0000F920FB60F9211242F933F934F935F9358
:1024E0006F937F938F939F93AF93BF93EF93FF93DC
:1024F000DF93CF93CDB7DEB78091800190918101BA
:10250000009729F0E0918001F09181010995CF9128
:10251000DF91FF91EF91BF91AF919F918F917F914B
:102520006F915F914F913F912F910F900FBE0F9040
:102530001F901895DF93CF9300D0CDB7DEB71A82E6
:102540001BC08A81882F90E0FC01E859FE4F9081E2
:1025500080E0692F41E00E94A70E8A81882F90E0D9
:10256000FC01E859FE4F908180E0692F41E00E9414
:10257000E80F8A818F5F8A838A81843010F3198201
:102580001BC08981882F90E0FC01E459FE4F9081A7
:1025900080E0692F40E00E94A70E8981882F90E09B
:1025A000FC01E459FE4F908180E0692F41E00E94D8
:1025B000E80F89818F5F89838981833010F30F90C1
:1025C0000F90CF91DF910895DF93CF93CDB7DEB712
:1025D00061970FB6F894DEBF0FBECDBF8FEF888B2B
:1025E0001F8697C08F85882F90E0FC01E859FE4F29
:1025F00080810E94CF138F85882F90E0FC01E859DD
:10260000FE4F80810E949D13898B89898F3F61F0E5
:102610008F85282F30E0C901880F991F820F931FE3
:10262000982F8989890F888B80E090E0A0E0B0E442
:102630008B879C87AD87BE876B857C858D859E85C6
:1026400020E030E04AEF54E40E941F02DC01CB019D
:102650008F839887A987BA876F81788589859A85BE
:1026600020E030E040E85FE30E94250488232CF45A
:1026700081E090E09E838D833FC06F81788589855E
:102680009A8520E03FEF4FE757E40E94C5031816F4
:102690004CF56B857C858D859E8520E030E040E2A1
:1026A00051E40E941F02DC01CB01BC01CD010E945C
:1026B0004900DC01CB019E838D830FC088EC90E044
:1026C0009C838B838B819C810197F1F79C838B8307
:1026D0008D819E8101979E838D838D819E81009740
:1026E00069F714C06F81788589859A850E944900B1
:1026F000DC01CB019E838D838D819E819A838983AA
:1027000089819A810197F1F79A8389838F858F5FF9
:102710008F878F85843008F465CF8889882F90E073
:10272000FC01E059FE4F808161960FB6F894DEBF40
:102730000FBECDBFCF91DF910895DF93CF9300D02F
:102740000F92CDB7DEB78A83198218C08981882F8E
:1027500090E0FC01E459FE4F908180E0692F0E94D7
:10276000E810882341F480E06A8141E00E94E80F8C
:1027700089818B830DC089818F5F898389818330B3
:1027800028F380E06A8141E00E94E80F8FEF8B839D
:102790008B810F900F900F90CF91DF910895DF9371
:1027A000CF930F92CDB7DEB7898380E0698140E097
:1027B0000E94E80F0F90CF91DF910895DF93CF93A0
:1027C000CDB7DEB72F970FB6F894DEBF0FBECDBFE3
:1027D0008F8783E062E040E00E94E80F83E063E0DF
:1027E00040E00E94E80F82E06F850E94A70F83E01F
:1027F00064E041E00E94E80F80E090E0A0E0B0E4F7
:102800008B879C87AD87BE876B857C858D859E85F4
:1028100020E030E04AEF54E40E941F02DC01CB01CB
:102820008F839887A987BA876F81788589859A85EC
:1028300020E030E040E85FE30E94250488232CF488
:1028400081E090E09E838D833FC06F81788589858C
:102850009A8520E03FEF4FE757E40E94C503181622
:102860004CF56B857C858D859E8520E030E040E2CF
:1028700051E40E941F02DC01CB01BC01CD010E948A
:102880004900DC01CB019E838D830FC088EC90E072
:102890009C838B838B819C810197F1F79C838B8335
:1028A0008D819E8101979E838D838D819E8100976E
:1028B00069F714C06F81788589859A850E944900DF
:1028C000DC01CB019E838D838D819E819A838983D8
:1028D00089819A810197F1F79A83898383E064E083
:1028E00040E00E94E80F2F960FB6F894DEBF0FBEAF
:1028F000CDBFCF91DF910895DF93CF93CDB7DEB7F2
:102900002F970FB6F894DEBF0FBECDBF8F8783E041
:1029100062E041E00E94E80F83E063E040E00E9453
:10292000E80F82E06F850E94A70F83E064E041E03A
:102930000E94E80F80E090E0A0E0B0E48B879C87E5
:10294000AD87BE876B857C858D859E8520E030E0D8
:102950004AEF54E40E941F02DC01CB018F83988769
:10296000A987BA876F81788589859A8520E030E0CC
:1029700040E85FE30E94250488232CF481E090E086
:102980009E838D833FC06F81788589859A8520E0FD
:102990003FEF4FE757E40E94C50318164CF56B85CF
:1029A0007C858D859E8520E030E040E251E40E94E8
:1029B0001F02DC01CB01BC01CD010E944900DC01FA
:1029C000CB019E838D830FC088EC90E09C838B832A
:1029D0008B819C810197F1F79C838B838D819E81F4
:1029E00001979E838D838D819E81009769F714C026
:1029F0006F81788589859A850E944900DC01CB0129
:102A00009E838D838D819E819A83898389819A811A
:102A10000197F1F79A83898383E064E040E00E94A4
:102A2000E80F2F960FB6F894DEBF0FBECDBFCF9143
:102A3000DF910895DF93CF93CDB7DEB72E970FB612
:102A4000F894DEBF0FBECDBF80E090E0ACE0B2E412
:102A50008B879C87AD87BE876B857C858D859E85A2
:102A600020E030E04AEF54E40E941F02DC01CB0179
:102A70008F839887A987BA876F81788589859A859A
:102A800020E030E040E85FE30E94250488232CF436
:102A900081E090E09E838D833FC06F81788589853A
:102AA0009A8520E03FEF4FE757E40E94C5031816D0
:102AB0004CF56B857C858D859E8520E030E040E27D
:102AC00051E40E941F02DC01CB01BC01CD010E9438
:102AD0004900DC01CB019E838D830FC088EC90E020
:102AE0009C838B838B819C810197F1F79C838B83E3
:102AF0008D819E8101979E838D838D819E8100971C
:102B000069F714C06F81788589859A850E9449008C
:102B1000DC01CB019E838D838D819E819A83898385
:102B200089819A810197F1F79A8389838CE30E94C6
:102B3000DE138CE00E94DE1381E00E94DE132E96ED
:102B40000FB6F894DEBF0FBECDBFCF91DF910895D1
:102B5000DF93CF93CDB7DEB782E06FEF0E94660EB2
:102B600083E062E041E00E94A70E83E063E041E081
:102B70000E94A70E83E064E041E00E94A70ECF917F
:102B8000DF910895DF93CF9300D00F92CDB7DEB7DA
:102B90009B838A8319820EC08981282F30E08A8125
:102BA0009B81FC01E20FF31F80810E947C148981CC
:102BB0008F5F89838981282F30E08A819B81FC0186
:102BC000E20FF31F8081882339F70F900F900F9049
:102BD000CF91DF910895DF93CF9300D00F92CDB7BF
:102BE000DEB789838981282F30E03B832A838A815D
:102BF0009B818430910509F44FC02A813B812530A7
:102C00003105D4F48A819B8181309105C9F12A81F3
:102C10003B81223031052CF48A819B81009761F140
:102C200052C02A813B812230310571F18A819B811A
:102C30008330910569F147C02A813B8127303105F6
:102C4000B9F18A819B81883091055CF42A813B81AE
:102C50002530310529F18A819B818630910521F14A
:102C600032C02A813B812830310531F18A819B8134
:102C70008930910529F127C080E30E947C1423C08C
:102C800081E30E947C141FC082E30E947C141BC05D
:102C900083E30E947C1417C084E30E947C1413C059
:102CA00085E30E947C140FC086E30E947C140BC055
:102CB00087E30E947C1407C088E30E947C1403C051
:102CC00089E30E947C140F900F900F90CF91DF91B9
:102CD0000895DF93CF9300D00F92CDB7DEB78A83EC
:102CE0006B838B81882319F48A81898306C08B8149
:102CF000813019F48A81805C898389818058898335
:102D000089810E94DE130F900F900F90CF91DF9179
:102D10000895DF93CF93CDB7DEB727970FB6F8941A
:102D2000DEBF0FBECDBF9C838B836D834E832F830D
:102D30008F81882F90E0880F991F880F991F880F27
:102D4000991F8A838A81805C0E94DE1319820EC0DB
:102D50008981282F30E08B819C81FC01E20FF31FD9
:102D600080810E947C1489818F5F8983898188306A
:102D700078F38D816E810E9469168F810E947C1488
:102D800027960FB6F894DEBF0FBECDBFCF91DF916F
:102D90000895DF93CF93CDB7DEB7AFE4B0E0EFE4B3
:102DA000F0E080818F7B8C93AFE4B0E0EFE4F0E063
:102DB000808180688C93AFE4B0E0EFE4F0E0808144
:102DC0008E7F8C93AFE4B0E0EFE4F0E0808182602E
:102DD0008C93AEE4B0E0EEE4F0E0808188608C9308
:102DE000AEE4B0E0EEE4F0E0808180618C93AEE48C
:102DF000B0E0EEE4F0E08081887F8C93AEE4B0E058
:102E0000EEE4F0E0808182608C93E6E4F0E080E222
:102E10009EE491838083CF91DF910895DF93CF93D8
:102E200000D0CDB7DEB79A838983EAE4F0E08981E8
:102E30009A81918380830F900F90CF91DF910895B5
:102E4000DF93CF93CDB7DEB7AAE2B0E0EAE2F0E0DD
:102E500080818B7F8C93E0E4F0E086E88083E9E278
:102E6000F0E083E38083AAE2B0E0EAE2F0E0808170
:102E700088608C93AAE2B0E0EAE2F0E080818061B1
:102E80008C93CF91DF910895DF93CF930F92CDB7BD
:102E9000DEB78983EBE2F0E08081829586958770CA
:102EA000882F90E0817090700097A1F3ECE2F0E041
:102EB000898180830F90CF91DF910895DF93CF9325
:102EC000CDB7DEB7EBE2F0E08081881F8827881F4E
:102ED0008130C1F7ECE2F0E08081CF91DF9108957D
:102EE000DF93CF9300D0CDB7DEB70E9420170E94AA
:102EF00039120E94DE110E949A1283E062E040E0E3
:102F00000E94A70E83E062E00E94611183E060E00E
:102F100040E00E94A70E83E061E041E00E94A70E1E
:102F200081E06FEF0E94660E88ED97E10E945512D6
:102F30000E945E178A838A818D3229F481E06FE4D2
:102F40000E94A70F2AC08A81873529F481E06BE5AA
:102F50000E94A70F22C08A818E3429F481E066E0A6
:102F60000E94A70F1AC08A81843429F481E060E0AE
:102F70000E94A70F12C08A81843579F481E06FE343
:102F80000E94A70F0E945E178E3221F481E060E05C
:102F90000E94A70F0E94DE11CBCF198205C00E94AC
:102FA000AD0789818F5F898389818830C0F3C0CF65
:102FB000DF93CF93CDB7DEB70E94FA118FE20E9464
:102FC0004417CF91DF9108952F923F924F925F92D5
:102FD0006F927F928F929F92AF92BF92CF92DF9229
:102FE000EF92FF920F931F93CF93DF93CDB7DEB78E
:102FF000CA1BDB0B0FB6F894DEBF0FBECDBF099422
:103000002A88398848885F846E847D848C849B8478
:10301000AA84B984C884DF80EE80FD800C811B8186
:10302000AA81B981CE0FD11D0FB6F894DEBF0FBEB5
:0A303000CDBFED010895F894FFCF25
:10303A000000000000000000000102020303030375
:10304A00040404040404040405050505050505052E
:10305A00050505050505050506060606060606060E
:10306A0006060606060606060606060606060606F6
:10307A0006060606060606060707070707070707DE
:10308A0007070707070707070707070707070707C6
:10309A0007070707070707070707070707070707B6
:1030AA0007070707070707070707070707070707A6
:1030BA00070707070707070708080808080808088E
:1030CA000808080808080808080808080808080876
:1030DA000808080808080808080808080808080866
:1030EA000808080808080808080808080808080856
:1030FA000808080808080808080808080808080846
:10310A000808080808080808080808080808080835
:10311A000808080808080808080808080808080825
:10312A000808080808080808080808080808080815
:10313A000808080808080808000102030405060030
:10314A003132333435363738392A3023000000001B
:00000001FF
